{
  "transactions": [
    {
      "hash": "0xbcb56792f4258e50331ab623295653db3b3a78ff2df7770563a350e5787bc97f",
      "transactionType": "CALL",
      "contractName": null,
      "contractAddress": "0x63421019ca61d6435ae73aabe48cb54f9bea1772",
      "function": null,
      "arguments": null,
      "transaction": {
        "from": "0xc25af38a36d790f34176955fc81dee87adba071b",
        "to": "0x63421019ca61d6435ae73aabe48cb54f9bea1772",
        "gas": "0x714d",
        "value": "0x38d7ea4c68000",
        "input": "0x",
        "nonce": "0x5e",
        "chainId": "0x14a34"
      },
      "additionalContracts": [],
      "isFixedGasLimit": false
    },
    {
      "hash": "0x24f892353b86823ecdbeaf6aab8f94184dc40fe5280a153d9261e833b308a917",
      "transactionType": "CALL",
      "contractName": null,
      "contractAddress": "0xb85885897d297000a74ea2e4711c3ca729461abc",
      "function": "mint(address,uint256)",
      "arguments": [
        "0x63421019cA61d6435Ae73AabE48Cb54f9BEa1772",
        "1000000000000000000"
      ],
      "transaction": {
        "from": "0xc25af38a36d790f34176955fc81dee87adba071b",
        "to": "0xb85885897d297000a74ea2e4711c3ca729461abc",
        "gas": "0x11431",
        "value": "0x0",
        "input": "0x40c10f1900000000000000000000000063421019ca61d6435ae73aabe48cb54f9bea17720000000000000000000000000000000000000000000000000de0b6b3a7640000",
        "nonce": "0x5f",
        "chainId": "0x14a34"
      },
      "additionalContracts": [],
      "isFixedGasLimit": false
    },
    {
      "hash": "0x00455ec68b516a059e599aab23e97169cfea0cfdebed269b712ddbf4fe0e42cf",
      "transactionType": "CALL",
      "contractName": null,
      "contractAddress": "0x2c6b1d5572277e34dc96ecb4b74b1196e24a79e6",
      "function": null,
      "arguments": null,
      "transaction": {
        "from": "0xc25af38a36d790f34176955fc81dee87adba071b",
        "to": "0x2c6b1d5572277e34dc96ecb4b74b1196e24a79e6",
        "gas": "0x714d",
        "value": "0x38d7ea4c68000",
        "input": "0x",
        "nonce": "0x60",
        "chainId": "0x14a34"
      },
      "additionalContracts": [],
      "isFixedGasLimit": false
    },
    {
      "hash": "0x43ba49273ebc6137e806d0891bd7ef0ff97e18335341f85f6c13db1f62ccc2a8",
      "transactionType": "CALL",
      "contractName": null,
      "contractAddress": "0xb85885897d297000a74ea2e4711c3ca729461abc",
      "function": "mint(address,uint256)",
      "arguments": [
        "0x2C6B1d5572277e34DC96ECb4B74B1196E24A79e6",
        "1000000000000000000"
      ],
      "transaction": {
        "from": "0xc25af38a36d790f34176955fc81dee87adba071b",
        "to": "0xb85885897d297000a74ea2e4711c3ca729461abc",
        "gas": "0x11431",
        "value": "0x0",
        "input": "0x40c10f190000000000000000000000002c6b1d5572277e34dc96ecb4b74b1196e24a79e60000000000000000000000000000000000000000000000000de0b6b3a7640000",
        "nonce": "0x61",
        "chainId": "0x14a34"
      },
      "additionalContracts": [],
      "isFixedGasLimit": false
    },
    {
      "hash": "0x7f46f74d45bbf27b31bc36bd5070f1f2f26d07288c68652953a171d757eaa71e",
      "transactionType": "CALL",
      "contractName": null,
      "contractAddress": "0xd5c766438c954f0c2da19ecbc7ad336e732272c9",
      "function": null,
      "arguments": null,
      "transaction": {
        "from": "0xc25af38a36d790f34176955fc81dee87adba071b",
        "to": "0xd5c766438c954f0c2da19ecbc7ad336e732272c9",
        "gas": "0x714d",
        "value": "0x38d7ea4c68000",
        "input": "0x",
        "nonce": "0x62",
        "chainId": "0x14a34"
      },
      "additionalContracts": [],
      "isFixedGasLimit": false
    },
    {
      "hash": "0xc4b9206e2ba7fb3e7a4c13210e2c656916cc94696ac54c023b5414680052889c",
      "transactionType": "CALL",
      "contractName": null,
      "contractAddress": "0xb85885897d297000a74ea2e4711c3ca729461abc",
      "function": "mint(address,uint256)",
      "arguments": [
        "0xd5C766438c954F0C2DA19ecbc7Ad336e732272C9",
        "1000000000000000000"
      ],
      "transaction": {
        "from": "0xc25af38a36d790f34176955fc81dee87adba071b",
        "to": "0xb85885897d297000a74ea2e4711c3ca729461abc",
        "gas": "0x11431",
        "value": "0x0",
        "input": "0x40c10f19000000000000000000000000d5c766438c954f0c2da19ecbc7ad336e732272c90000000000000000000000000000000000000000000000000de0b6b3a7640000",
        "nonce": "0x63",
        "chainId": "0x14a34"
      },
      "additionalContracts": [],
      "isFixedGasLimit": false
    },
    {
      "hash": "0x31fae2b3b1080fd806841e534605486aa51a60a7ca28bb06325222feabf8f205",
      "transactionType": "CALL",
      "contractName": null,
      "contractAddress": "0x82678fdcad0d9795cc0c440945407c325c2273fc",
      "function": "deployPresale((uint256,uint256,uint256,uint256,bytes32)[],(address,uint256,uint256,uint8,uint16),(address,uint256,address,uint256,bool,bytes32,uint256,uint256),address)",
      "arguments": [
        "[(1775146402, 1775751202, 10000000000000000000, 2000000000000000000, 0x0000000000000000000000000000000000000000000000000000000000000000)]",
        "(0xc25af38A36d790F34176955Fc81dee87aDBA071B, 500000000000000000, 10000000000000000000, 1, 500)",
        "(0x0000000000000000000000000000000000000000, 1000000000000000000000000, 0xc25af38A36d790F34176955Fc81dee87aDBA071B, 100, false, 0x0000000000000000000000000000000000000000000000000000000000000000, 0, 0)",
        "0xB85885897D297000A74eA2e4711C3Ca729461ABC"
      ],
      "transaction": {
        "from": "0xc25af38a36d790f34176955fc81dee87adba071b",
        "to": "0x82678fdcad0d9795cc0c440945407c325c2273fc",
        "gas": "0xda9b2",
        "value": "0x0",
        "input": "0xf750109600000000000000000000000000000000000000000000000000000000000001e0000000000000000000000000c25af38a36d790f34176955fc81dee87adba071b00000000000000000000000000000000000000000000000006f05b59d3b200000000000000000000000000000000000000000000000000008ac7230489e80000000000000000000000000000000000000000000000000000000000000000000100000000000000000000000000000000000000000000000000000000000001f4000000000000000000000000000000000000000000000000000000000000000000000000000000000000000000000000000000000000d3c21bcecceda1000000000000000000000000000000c25af38a36d790f34176955fc81dee87adba071b00000000000000000000000000000000000000000000000000000000000000640000000000000000000000000000000000000000000000000000000000000000000000000000000000000000000000000000000000000000000000000000000000000000000000000000000000000000000000000000000000000000000000000000000000000000000000000000000000000000000000000000000000000000000000000000000000000000b85885897d297000a74ea2e4711c3ca729461abc00000000000000000000000000000000000000000000000000000000000000010000000000000000000000000000000000000000000000000000000069ce95a20000000000000000000000000000000000000000000000000000000069d7d0220000000000000000000000000000000000000000000000008ac7230489e800000000000000000000000000000000000000000000000000001bc16d674ec800000000000000000000000000000000000000000000000000000000000000000000",
        "nonce": "0x64",
        "chainId": "0x14a34"
      },
      "additionalContracts": [
        {
          "transactionType": "CREATE",
          "contractName": "BeaconProxy",
          "address": "0x096c7c41f0a1b8e2ec2bbfb0d52db86575330ed8",
          "initCode": "0x60a08060405261047a80380380916100178285610292565b833981016040828203126101eb5761002e826102c9565b602083015190926001600160401b0382116101eb57019080601f830112156101eb57815161005b816102dd565b926100696040519485610292565b8184526020840192602083830101116101eb57815f926020809301855e84010152823b15610274577fa3f0ad74e5423aebfd80d3ef4346578335a9a72aeaee59ff6cb3582b35133d5080546001600160a01b0319166001600160a01b038516908117909155604051635c60da1b60e01b8152909190602081600481865afa9081156101f7575f9161023a575b50803b1561021a5750817f1cf3b03a6cf19fa2baba4df148e9dcabedea7f8a5c07840e207e5c089be95d3e5f80a282511561020257602060049260405193848092635c60da1b60e01b82525afa9182156101f7575f926101ae575b505f809161018a945190845af43d156101a6573d9161016e836102dd565b9261017c6040519485610292565b83523d5f602085013e6102f8565b505b608052604051610123908161035782396080518160180152f35b6060916102f8565b9291506020833d6020116101ef575b816101ca60209383610292565b810103126101eb575f80916101e161018a956102c9565b9394509150610150565b5f80fd5b3d91506101bd565b6040513d5f823e3d90fd5b505050341561018c5763b398979f60e01b5f5260045ffd5b634c9c8ce360e01b5f9081526001600160a01b0391909116600452602490fd5b90506020813d60201161026c575b8161025560209383610292565b810103126101eb57610266906102c9565b5f6100f5565b3d9150610248565b631933b43b60e21b5f9081526001600160a01b038416600452602490fd5b601f909101601f19168101906001600160401b038211908210176102b557604052565b634e487b7160e01b5f52604160045260245ffd5b51906001600160a01b03821682036101eb57565b6001600160401b0381116102b557601f01601f191660200190565b9061031c575080511561030d57602081519101fd5b63d6bda27560e01b5f5260045ffd5b8151158061034d575b61032d575090565b639996b31560e01b5f9081526001600160a01b0391909116600452602490fd5b50803b1561032556fe60806040819052635c60da1b60e01b81526020906004817f00000000000000000000000000000000000000000000000000000000000000006001600160a01b03165afa801560a2575f901560d1575060203d602011609c575b601f19601f820116608001906080821067ffffffffffffffff83111760885760849160405260800160ad565b60d1565b634e487b7160e01b5f52604160045260245ffd5b503d6058565b6040513d5f823e3d90fd5b602090607f19011260cd576080516001600160a01b038116810360cd5790565b5f80fd5b5f8091368280378136915af43d5f803e1560e9573d5ff35b3d5ffdfea2646970667358221220c246b2b62979da00d95a9c8a4dc3f5de68a503850f7addd33cb9dd80c9a580f564736f6c634300081b003300000000000000000000000036d5470d2e49307bd4ce42ad69c3a49ccb78fb64000000000000000000000000000000000000000000000000000000000000004000000000000000000000000000000000000000000000000000000000000002c4e7dc23eb0000000000000000000000000000000000000000000000000000000000000200000000000000000000000000c25af38a36d790f34176955fc81dee87adba071b00000000000000000000000000000000000000000000000006f05b59d3b200000000000000000000000000000000000000000000000000008ac7230489e80000000000000000000000000000000000000000000000000000000000000000000100000000000000000000000000000000000000000000000000000000000001f4000000000000000000000000000000000000000000000000000000000000000000000000000000000000000000000000000000000000d3c21bcecceda1000000000000000000000000000000c25af38a36d790f34176955fc81dee87adba071b0000000000000000000000000000000000000000000000000000000000000064000000000000000000000000000000000000000000000000000000000000000000000000000000000000000000000000000000000000000000000000000000000000000000000000000000000000000000000000000000000000000000000000000000000000000000000000000000000000000000000000000000000000000000000000000000000000000082678fdcad0d9795cc0c440945407c325c2273fc000000000000000000000000b85885897d297000a74ea2e4711c3ca729461abc00000000000000000000000000000000000000000000000000000000000000010000000000000000000000000000000000000000000000000000000069ce95a20000000000000000000000000000000000000000000000000000000069d7d0220000000000000000000000000000000000000000000000008ac7230489e800000000000000000000000000000000000000000000000000001bc16d674ec80000000000000000000000000000000000000000000000000000000000000000000000000000000000000000000000000000000000000000000000000000"
        }
      ],
      "isFixedGasLimit": false
    },
    {
      "hash": "0xa04109611fb7a29c86ff41bc4aacf3aacf3e266d6fd7dcb435b98ead0922b3a4",
      "transactionType": "CALL",
      "contractName": null,
      "contractAddress": "0xb85885897d297000a74ea2e4711c3ca729461abc",
      "function": "approve(address,uint256)",
      "arguments": [
        "0x096c7c41F0A1b8e2EC2BBfb0D52DB86575330eD8",
        "1000000000000000000"
      ],
      "transaction": {
        "from": "0x63421019ca61d6435ae73aabe48cb54f9bea1772",
        "to": "0xb85885897d297000a74ea2e4711c3ca729461abc",
        "gas": "0xf920",
        "value": "0x0",
        "input": "0x095ea7b3000000000000000000000000096c7c41f0a1b8e2ec2bbfb0d52db86575330ed80000000000000000000000000000000000000000000000000de0b6b3a7640000",
        "nonce": "0x0",
        "chainId": "0x14a34"
      },
      "additionalContracts": [],
      "isFixedGasLimit": false
    },
    {
      "hash": "0x3e7433374bedba2b18bc06c9634d6b9933cbe36ac36b781486efe9a447aa2ff5",
      "transactionType": "CALL",
      "contractName": "BeaconProxy",
      "contractAddress": "0x096c7c41f0a1b8e2ec2bbfb0d52db86575330ed8",
      "function": null,
      "arguments": null,
      "transaction": {
        "from": "0x63421019ca61d6435ae73aabe48cb54f9bea1772",
        "to": "0x096c7c41f0a1b8e2ec2bbfb0d52db86575330ed8",
        "gas": "0x36ce0",
        "value": "0x0",
        "input": "0x825e1f8a00000000000000000000000000000000000000000000000000000000000000000000000000000000000000000000000000000000000000000de0b6b3a764000000000000000000000000000000000000000000000000000000000000000000600000000000000000000000000000000000000000000000000000000000000000",
        "nonce": "0x1",
        "chainId": "0x14a34"
      },
      "additionalContracts": [],
      "isFixedGasLimit": false
    },
    {
      "hash": "0x58a50815e356020df55db9db993f4d44ab349f5bac3c70dce21a1ee0455f2501",
      "transactionType": "CALL",
      "contractName": null,
      "contractAddress": "0xb85885897d297000a74ea2e4711c3ca729461abc",
      "function": "approve(address,uint256)",
      "arguments": [
        "0x096c7c41F0A1b8e2EC2BBfb0D52DB86575330eD8",
        "1000000000000000000"
      ],
      "transaction": {
        "from": "0x2c6b1d5572277e34dc96ecb4b74b1196e24a79e6",
        "to": "0xb85885897d297000a74ea2e4711c3ca729461abc",
        "gas": "0xf920",
        "value": "0x0",
        "input": "0x095ea7b3000000000000000000000000096c7c41f0a1b8e2ec2bbfb0d52db86575330ed80000000000000000000000000000000000000000000000000de0b6b3a7640000",
        "nonce": "0x0",
        "chainId": "0x14a34"
      },
      "additionalContracts": [],
      "isFixedGasLimit": false
    },
    {
      "hash": "0x856c11bebae69ceb6b10b8e3a8374192404b1b1d44021c736eb6790b136140c7",
      "transactionType": "CALL",
      "contractName": "BeaconProxy",
      "contractAddress": "0x096c7c41f0a1b8e2ec2bbfb0d52db86575330ed8",
      "function": null,
      "arguments": null,
      "transaction": {
        "from": "0x2c6b1d5572277e34dc96ecb4b74b1196e24a79e6",
        "to": "0x096c7c41f0a1b8e2ec2bbfb0d52db86575330ed8",
        "gas": "0x21f28",
        "value": "0x0",
        "input": "0x825e1f8a00000000000000000000000000000000000000000000000000000000000000000000000000000000000000000000000000000000000000000de0b6b3a764000000000000000000000000000000000000000000000000000000000000000000600000000000000000000000000000000000000000000000000000000000000000",
        "nonce": "0x1",
        "chainId": "0x14a34"
      },
      "additionalContracts": [],
      "isFixedGasLimit": false
    },
    {
      "hash": "0x1929eddd355ee0aab479fa74d111e268080d5d6aebaf16ad2bcb8f0c59787161",
      "transactionType": "CALL",
      "contractName": null,
      "contractAddress": "0xb85885897d297000a74ea2e4711c3ca729461abc",
      "function": "approve(address,uint256)",
      "arguments": [
        "0x096c7c41F0A1b8e2EC2BBfb0D52DB86575330eD8",
        "1000000000000000000"
      ],
      "transaction": {
        "from": "0xd5c766438c954f0c2da19ecbc7ad336e732272c9",
        "to": "0xb85885897d297000a74ea2e4711c3ca729461abc",
        "gas": "0xf920",
        "value": "0x0",
        "input": "0x095ea7b3000000000000000000000000096c7c41f0a1b8e2ec2bbfb0d52db86575330ed80000000000000000000000000000000000000000000000000de0b6b3a7640000",
        "nonce": "0x0",
        "chainId": "0x14a34"
      },
      "additionalContracts": [],
      "isFixedGasLimit": false
    },
    {
      "hash": "0x6ae191393a9f9d8fbb4ed0c4b2da76f383d1aa535c678f6a0018060e93bd314d",
      "transactionType": "CALL",
      "contractName": "BeaconProxy",
      "contractAddress": "0x096c7c41f0a1b8e2ec2bbfb0d52db86575330ed8",
      "function": null,
      "arguments": null,
      "transaction": {
        "from": "0xd5c766438c954f0c2da19ecbc7ad336e732272c9",
        "to": "0x096c7c41f0a1b8e2ec2bbfb0d52db86575330ed8",
        "gas": "0x21f28",
        "value": "0x0",
        "input": "0x825e1f8a00000000000000000000000000000000000000000000000000000000000000000000000000000000000000000000000000000000000000000de0b6b3a764000000000000000000000000000000000000000000000000000000000000000000600000000000000000000000000000000000000000000000000000000000000000",
        "nonce": "0x1",
        "chainId": "0x14a34"
      },
      "additionalContracts": [],
      "isFixedGasLimit": false
    },
    {
      "hash": "0x0e2a9462306875e203e0b77029ca972bc35f4db6a7a6e9c1130d8097324ce48c",
      "transactionType": "CALL",
      "contractName": "BeaconProxy",
      "contractAddress": "0x096c7c41f0a1b8e2ec2bbfb0d52db86575330ed8",
      "function": null,
      "arguments": null,
      "transaction": {
        "from": "0xc25af38a36d790f34176955fc81dee87adba071b",
        "to": "0x096c7c41f0a1b8e2ec2bbfb0d52db86575330ed8",
        "gas": "0x19a9f2",
        "value": "0x0",
        "input": "0x1a3b4345000000000000000000000000000000000000000000000000000000000000002000000000000000000000000000000000000000000000000000000000000001a000000000000000000000000000000000000000000000000000000000000001e00000000000000000000000000000000000000000000000000000394c549ef000000000000000000000000000000000000000000000000000000000000000000000000000000000000000000000000000000000000000000000000000000000000000000000000000000000000000000000000000000000000000000000000000000000000000000000000000000000000000000000000000000000000000000000000000000000000000000000000000000000000000000000000000000000000000000000000000000000000000000000000000000000000000000000000000000000000000000000000000c996f3484fe1dfdac69e63d52838385a21e53bb8000000000000000000000000f020c709fe9ae902e3cded1e50ca01021ce968e80000000000000000000000000000000000000000000000000000000069ce95a2000000000000000000000000000000000000000000000000000000000000000000000000000000000000000000000000000000000000000000000000000000084c6f6f70686f6c6500000000000000000000000000000000000000000000000000000000000000000000000000000000000000000000000000000000000000044c4f4f5000000000000000000000000000000000000000000000000000000000",
        "nonce": "0x65",
        "chainId": "0x14a34"
      },
      "additionalContracts": [
        {
          "transactionType": "CREATE2",
          "contractName": null,
          "address": "0xe0cc9ef22a64b2b3ca028e3e83b8fc69f062b8ac",
          "initCode": "0x60e060405234801561000f575f5ffd5b50604051610ea4380380610ea483398101604081905261002e91610216565b8383835f61003c848261031d565b506001610049838261031d565b5060ff81166080524660a05261005d610078565b60c0525061006f915033905082610110565b5050505061046d565b5f7f8b73c3c69bb8fe3d512ecc4cf759cc79239f7b179b0ffacaa9a75d522b39400f5f6040516100a891906103d7565b6040805191829003822060208301939093528101919091527fc89efdaa54c0f20c7adf612882df0950f5a951637e0307cdcb4c672f298b8bc660608201524660808201523060a082015260c00160405160208183030381529060405280519060200120905090565b8060025f8282546101219190610448565b90915550506001600160a01b0382165f818152600360209081526040808320805486019055518481527fddf252ad1be2c89b69c2b068fc378daa952ba7f163c4a11628f55a4df523b3ef910160405180910390a35050565b634e487b7160e01b5f52604160045260245ffd5b5f82601f83011261019c575f5ffd5b81516001600160401b038111156101b5576101b5610179565b604051601f8201601f19908116603f011681016001600160401b03811182821017156101e3576101e3610179565b6040528181528382016020018510156101fa575f5ffd5b8160208501602083015e5f918101602001919091529392505050565b5f5f5f5f60808587031215610229575f5ffd5b84516001600160401b0381111561023e575f5ffd5b61024a8782880161018d565b602087015190955090506001600160401b03811115610267575f5ffd5b6102738782880161018d565b935050604085015160ff81168114610289575f5ffd5b6060959095015193969295505050565b600181811c908216806102ad57607f821691505b6020821081036102cb57634e487b7160e01b5f52602260045260245ffd5b50919050565b601f82111561031857805f5260205f20601f840160051c810160208510156102f65750805b601f840160051c820191505b81811015610315575f8155600101610302565b50505b505050565b81516001600160401b0381111561033657610336610179565b61034a816103448454610299565b846102d1565b6020601f82116001811461037c575f83156103655750848201515b5f19600385901b1c1916600184901b178455610315565b5f84815260208120601f198516915b828110156103ab578785015182556020948501946001909201910161038b565b50848210156103c857868401515f19600387901b60f8161c191681555b50505050600190811b01905550565b5f5f83546103e481610299565b6001821680156103fb57600181146104105761043d565b60ff198316865281151582028601935061043d565b865f5260205f205f5b8381101561043557815488820152600190910190602001610419565b505081860193505b509195945050505050565b8082018082111561046757634e487b7160e01b5f52601160045260245ffd5b92915050565b60805160a05160c051610a0d6104975f395f6103e001525f6103ab01525f6101160152610a0d5ff3fe608060405234801561000f575f5ffd5b50600436106100a2575f3560e01c806306fdde03146100a6578063095ea7b3146100c457806318160ddd146100e757806323b872dd146100fe578063313ce567146101115780633644e5151461014a57806370a08231146101525780637ecebe001461017157806395d89b4114610190578063a9059cbb14610198578063d505accf146101ab578063dd62ed3e146101c0575b5f5ffd5b6100ae6101ea565b6040516100bb9190610734565b60405180910390f35b6100d76100d2366004610784565b610275565b60405190151581526020016100bb565b6100f060025481565b6040519081526020016100bb565b6100d761010c3660046107ac565b6102ce565b6101387f000000000000000000000000000000000000000000000000000000000000000081565b60405160ff90911681526020016100bb565b6100f06103a8565b6100f06101603660046107e6565b60036020525f908152604090205481565b6100f061017f3660046107e6565b60056020525f908152604090205481565b6100ae610402565b6100d76101a6366004610784565b61040f565b6101be6101b9366004610806565b610472565b005b6100f06101ce366004610873565b600460209081525f928352604080842090915290825290205481565b5f80546101f6906108a4565b80601f0160208091040260200160405190810160405280929190818152602001828054610222906108a4565b801561026d5780601f106102445761010080835404028352916020019161026d565b820191905f5260205f20905b81548152906001019060200180831161025057829003601f168201915b505050505081565b335f8181526004602090815260408083206001600160a01b038716808552925280832085905551919290915f5160206109b85f395f51905f52906102bc9086815260200190565b60405180910390a35060015b92915050565b6001600160a01b0383165f9081526004602090815260408083203384529091528120545f1981146103275761030383826108dc565b6001600160a01b0386165f9081526004602090815260408083203384529091529020555b6001600160a01b0385165f908152600360205260408120805485929061034e9084906108dc565b90915550506001600160a01b038085165f81815260036020526040908190208054870190555190918716905f5160206109985f395f51905f52906103959087815260200190565b60405180910390a3506001949350505050565b5f7f000000000000000000000000000000000000000000000000000000000000000046146103dd576103d861069c565b905090565b507f000000000000000000000000000000000000000000000000000000000000000090565b600180546101f6906108a4565b335f9081526003602052604081208054839190839061042f9084906108dc565b90915550506001600160a01b0383165f81815260036020526040908190208054850190555133905f5160206109985f395f51905f52906102bc9086815260200190565b428410156104c15760405162461bcd60e51b815260206004820152601760248201527614115493525517d11150511312539157d1561412549151604a1b60448201526064015b60405180910390fd5b5f60016104cc6103a8565b6001600160a01b038a81165f8181526005602090815260409182902080546001810190915582517f6e71edae12b1b97f4d1f60370fef10105fa2faae0126114a169c64845d6126c98184015280840194909452938d166060840152608083018c905260a083019390935260c08083018b90528151808403909101815260e08301909152805192019190912061190160f01b6101008301526101028201929092526101228101919091526101420160408051601f1981840301815282825280516020918201205f84529083018083525260ff871690820152606081018590526080810184905260a0016020604051602081039080840390855afa1580156105d4573d5f5f3e3d5ffd5b5050604051601f1901519150506001600160a01b0381161580159061060a5750876001600160a01b0316816001600160a01b0316145b6106475760405162461bcd60e51b815260206004820152600e60248201526d24a72b20a624a22fa9a4a3a722a960911b60448201526064016104b8565b6001600160a01b039081165f9081526004602090815260408083208a8516808552908352928190208990555188815291928a16915f5160206109b85f395f51905f52910160405180910390a350505050505050565b5f7f8b73c3c69bb8fe3d512ecc4cf759cc79239f7b179b0ffacaa9a75d522b39400f5f6040516106cc91906108fb565b6040805191829003822060208301939093528101919091527fc89efdaa54c0f20c7adf612882df0950f5a951637e0307cdcb4c672f298b8bc660608201524660808201523060a082015260c00160405160208183030381529060405280519060200120905090565b602081525f82518060208401528060208501604085015e5f604082850101526040601f19601f83011684010191505092915050565b80356001600160a01b038116811461077f575f5ffd5b919050565b5f5f60408385031215610795575f5ffd5b61079e83610769565b946020939093013593505050565b5f5f5f606084860312156107be575f5ffd5b6107c784610769565b92506107d560208501610769565b929592945050506040919091013590565b5f602082840312156107f6575f5ffd5b6107ff82610769565b9392505050565b5f5f5f5f5f5f5f60e0888a03121561081c575f5ffd5b61082588610769565b965061083360208901610769565b95506040880135945060608801359350608088013560ff81168114610856575f5ffd5b9699959850939692959460a0840135945060c09093013592915050565b5f5f60408385031215610884575f5ffd5b61088d83610769565b915061089b60208401610769565b90509250929050565b600181811c908216806108b857607f821691505b6020821081036108d657634e487b7160e01b5f52602260045260245ffd5b50919050565b818103818111156102c857634e487b7160e01b5f52601160045260245ffd5b5f5f83545f8160011c9050600182168061091657607f821691505b60208210810361093457634e487b7160e01b5f52602260045260245ffd5b808015610948576001811461095d5761098b565b60ff198416875282151583028701945061098b565b5f888152602090205f5b8481101561098357815489820152600190910190602001610967565b505082870194505b5092969550505050505056feddf252ad1be2c89b69c2b068fc378daa952ba7f163c4a11628f55a4df523b3ef8c5be1e5ebec7d5bd14f71427d1e84f3dd0314c0f7b2291e5b200ac8c7c3b925a264697066735822122060c2d06b779daec5813b131d1ca327b54feb35a7f565d67177fd3b43d826c24464736f6c634300081e0033000000000000000000000000000000000000000000000000000000000000008000000000000000000000000000000000000000000000000000000000000000c0000000000000000000000000000000000000000000000000000000000000001200000000000000000000000000000000000000000000de589d32bd931c40000000000000000000000000000000000000000000000000000000000000000000084c6f6f70686f6c6500000000000000000000000000000000000000000000000000000000000000000000000000000000000000000000000000000000000000044c4f4f5000000000000000000000000000000000000000000000000000000000"
        }
      ],
      "isFixedGasLimit": false
    },
    {
      "hash": "0xfe99100a64951981317543297b52598561ec715bc643d380b3e45fd91ee4f3bf",
      "transactionType": "CALL",
      "contractName": "BeaconProxy",
      "contractAddress": "0x096c7c41f0a1b8e2ec2bbfb0d52db86575330ed8",
      "function": null,
      "arguments": null,
      "transaction": {
        "from": "0x63421019ca61d6435ae73aabe48cb54f9bea1772",
        "to": "0x096c7c41f0a1b8e2ec2bbfb0d52db86575330ed8",
        "gas": "0x246f4",
        "value": "0x0",
        "input": "0xb8709d8a",
        "nonce": "0x2",
        "chainId": "0x14a34"
      },
      "additionalContracts": [],
      "isFixedGasLimit": false
    },
    {
      "hash": "0xf99a2a3cb6d28ee50caa510d6382ebc7d8c89af43321a2ad0597b1d6a5e48e09",
      "transactionType": "CALL",
      "contractName": "BeaconProxy",
      "contractAddress": "0x096c7c41f0a1b8e2ec2bbfb0d52db86575330ed8",
      "function": null,
      "arguments": null,
      "transaction": {
        "from": "0x2c6b1d5572277e34dc96ecb4b74b1196e24a79e6",
        "to": "0x096c7c41f0a1b8e2ec2bbfb0d52db86575330ed8",
        "gas": "0x246f4",
        "value": "0x0",
        "input": "0xb8709d8a",
        "nonce": "0x2",
        "chainId": "0x14a34"
      },
      "additionalContracts": [],
      "isFixedGasLimit": false
    },
    {
      "hash": "0x4c290101e8f6b4e8f606201fc95bf535717599974e2e15b8caa266c782fd2ae5",
      "transactionType": "CALL",
      "contractName": "BeaconProxy",
      "contractAddress": "0x096c7c41f0a1b8e2ec2bbfb0d52db86575330ed8",
      "function": null,
      "arguments": null,
      "transaction": {
        "from": "0xd5c766438c954f0c2da19ecbc7ad336e732272c9",
        "to": "0x096c7c41f0a1b8e2ec2bbfb0d52db86575330ed8",
        "gas": "0x246f4",
        "value": "0x0",
        "input": "0xb8709d8a",
        "nonce": "0x2",
        "chainId": "0x14a34"
      },
      "additionalContracts": [],
      "isFixedGasLimit": false
    }
  ],
  "receipts": [
    {
      "status": "0x1",
      "cumulativeGasUsed": "0x784dc",
      "logs": [],
      "logsBloom": "0x00000000000000000000000000000000000000000000000000000000000000000000000000000000000000000000000000000000000000000000000000000000000000000000000000000000000000000000000000000000000000000000000000000000000000000000000000000000000000000000000000000000000000000000000000000000000000000000000000000000000000000000000000000000000000000000000000000000000000000000000000000000000000000000000000000000000000000000000000000000000000000000000000000000000000000000000000000000000000000000000000000000000000000000000000000000",
      "type": "0x2",
      "transactionHash": "0xbcb56792f4258e50331ab623295653db3b3a78ff2df7770563a350e5787bc97f",
      "transactionIndex": "0x5",
      "blockHash": "0x0000000000000000000000000000000000000000000000000000000000000000",
      "blockNumber": "0x25d9b66",
      "gasUsed": "0x5208",
      "effectiveGasPrice": "0x5b8d80",
      "blobGasUsed": "0x39d0",
      "from": "0xc25af38a36d790f34176955fc81dee87adba071b",
      "to": "0x63421019ca61d6435ae73aabe48cb54f9bea1772",
      "contractAddress": null,
      "daFootprintGasScalar": "0x94",
      "l1BaseFeeScalar": "0x44d",
      "l1BlobBaseFee": "0x1",
      "l1BlobBaseFeeScalar": "0xa118b",
      "l1Fee": "0x6f",
      "l1GasPrice": "0x1a",
      "l1GasUsed": "0x640"
    },
    {
      "status": "0x1",
      "cumulativeGasUsed": "0x69bbf4",
      "logs": [
        {
          "address": "0xb85885897d297000a74ea2e4711c3ca729461abc",
          "topics": [
            "0xddf252ad1be2c89b69c2b068fc378daa952ba7f163c4a11628f55a4df523b3ef",
            "0x0000000000000000000000000000000000000000000000000000000000000000",
            "0x00000000000000000000000063421019ca61d6435ae73aabe48cb54f9bea1772"
          ],
          "data": "0x0000000000000000000000000000000000000000000000000de0b6b3a7640000",
          "blockHash": "0xcf4acb2033a842be87b3bc91982091115c657cef781d70375d5782e6ea785bb9",
          "blockNumber": "0x25d9b67",
          "blockTimestamp": "0x69ce95ae",
          "transactionHash": "0x24f892353b86823ecdbeaf6aab8f94184dc40fe5280a153d9261e833b308a917",
          "transactionIndex": "0x18",
          "logIndex": "0xbe",
          "removed": false
        }
      ],
      "logsBloom": "0x00000000000000000000000000000000000000000000000004000000000000000000000000000000000000000000000000000000000000000000000000000000000000000000000000000008000000000000000000000000000000000000000000000000020000000000000000000800000000000000000000000010000000000000400000000000000000000000020000000000000000000000000000008000000000000020800000000000000000000000000000000000000000000000000000000002000000000000000000000000000000000000000000000000000020000000000000000000000000000000000000000000000000000000000000000000",
      "type": "0x2",
      "transactionHash": "0x24f892353b86823ecdbeaf6aab8f94184dc40fe5280a153d9261e833b308a917",
      "transactionIndex": "0x18",
      "blockHash": "0xcf4acb2033a842be87b3bc91982091115c657cef781d70375d5782e6ea785bb9",
      "blockNumber": "0x25d9b67",
      "gasUsed": "0xc7f6",
      "effectiveGasPrice": "0x5b8d80",
      "blobGasUsed": "0x39d0",
      "from": "0xc25af38a36d790f34176955fc81dee87adba071b",
      "to": "0xb85885897d297000a74ea2e4711c3ca729461abc",
      "contractAddress": null,
      "daFootprintGasScalar": "0x94",
      "l1BaseFeeScalar": "0x44d",
      "l1BlobBaseFee": "0x2",
      "l1BlobBaseFeeScalar": "0xa118b",
      "l1Fee": "0xae",
      "l1GasPrice": "0x18",
      "l1GasUsed": "0x640"
    },
    {
      "status": "0x1",
      "cumulativeGasUsed": "0x3e3562",
      "logs": [],
      "logsBloom": "0x00000000000000000000000000000000000000000000000000000000000000000000000000000000000000000000000000000000000000000000000000000000000000000000000000000000000000000000000000000000000000000000000000000000000000000000000000000000000000000000000000000000000000000000000000000000000000000000000000000000000000000000000000000000000000000000000000000000000000000000000000000000000000000000000000000000000000000000000000000000000000000000000000000000000000000000000000000000000000000000000000000000000000000000000000000000",
      "type": "0x2",
      "transactionHash": "0x00455ec68b516a059e599aab23e97169cfea0cfdebed269b712ddbf4fe0e42cf",
      "transactionIndex": "0x19",
      "blockHash": "0x2e3d4c3cce4c8baedd7d37c98e40584e066622dc99708f569a047e0359185c78",
      "blockNumber": "0x25d9b68",
      "gasUsed": "0x5208",
      "effectiveGasPrice": "0x5b8d80",
      "blobGasUsed": "0x39d0",
      "from": "0xc25af38a36d790f34176955fc81dee87adba071b",
      "to": "0x2c6b1d5572277e34dc96ecb4b74b1196e24a79e6",
      "contractAddress": null,
      "daFootprintGasScalar": "0x94",
      "l1BaseFeeScalar": "0x44d",
      "l1BlobBaseFee": "0x2",
      "l1BlobBaseFeeScalar": "0xa118b",
      "l1Fee": "0xae",
      "l1GasPrice": "0x18",
      "l1GasUsed": "0x640"
    },
    {
      "status": "0x1",
      "cumulativeGasUsed": "0x499925",
      "logs": [
        {
          "address": "0xb85885897d297000a74ea2e4711c3ca729461abc",
          "topics": [
            "0xddf252ad1be2c89b69c2b068fc378daa952ba7f163c4a11628f55a4df523b3ef",
            "0x0000000000000000000000000000000000000000000000000000000000000000",
            "0x0000000000000000000000002c6b1d5572277e34dc96ecb4b74b1196e24a79e6"
          ],
          "data": "0x0000000000000000000000000000000000000000000000000de0b6b3a7640000",
          "blockHash": "0x0000000000000000000000000000000000000000000000000000000000000000",
          "blockNumber": "0x25d9b69",
          "blockTimestamp": "0x69ce95b2",
          "transactionHash": "0x43ba49273ebc6137e806d0891bd7ef0ff97e18335341f85f6c13db1f62ccc2a8",
          "transactionIndex": "0x15",
          "logIndex": "0xda",
          "removed": false
        }
      ],
      "logsBloom": "0x00000000000000000000000000000000000000000000000004000000000000000000000000000000000000000000000000000000000000000000000000000000000000000000000000000008000000000000000000000000000000000000000000000000020000000100000000000800000000000000000000000010000000000000400000000000000000000000020000000000000000000000000000000000000000001000000000000000000000000000000100000000000000000000000000000002000000000000000000000000000000000000000000000000000020000000000000000000000000000000000000000000000000000000000000000000",
      "type": "0x2",
      "transactionHash": "0x43ba49273ebc6137e806d0891bd7ef0ff97e18335341f85f6c13db1f62ccc2a8",
      "transactionIndex": "0x15",
      "blockHash": "0x0000000000000000000000000000000000000000000000000000000000000000",
      "blockNumber": "0x25d9b69",
      "gasUsed": "0xc7f6",
      "effectiveGasPrice": "0x5b8d80",
      "blobGasUsed": "0x39d0",
      "from": "0xc25af38a36d790f34176955fc81dee87adba071b",
      "to": "0xb85885897d297000a74ea2e4711c3ca729461abc",
      "contractAddress": null,
      "daFootprintGasScalar": "0x94",
      "l1BaseFeeScalar": "0x44d",
      "l1BlobBaseFee": "0x2",
      "l1BlobBaseFeeScalar": "0xa118b",
      "l1Fee": "0xae",
      "l1GasPrice": "0x18",
      "l1GasUsed": "0x640"
    },
    {
      "status": "0x1",
      "cumulativeGasUsed": "0x26880c",
      "logs": [],
      "logsBloom": "0x00000000000000000000000000000000000000000000000000000000000000000000000000000000000000000000000000000000000000000000000000000000000000000000000000000000000000000000000000000000000000000000000000000000000000000000000000000000000000000000000000000000000000000000000000000000000000000000000000000000000000000000000000000000000000000000000000000000000000000000000000000000000000000000000000000000000000000000000000000000000000000000000000000000000000000000000000000000000000000000000000000000000000000000000000000000",
      "type": "0x2",
      "transactionHash": "0x7f46f74d45bbf27b31bc36bd5070f1f2f26d07288c68652953a171d757eaa71e",
      "transactionIndex": "0xc",
      "blockHash": "0x0000000000000000000000000000000000000000000000000000000000000000",
      "blockNumber": "0x25d9b6a",
      "gasUsed": "0x5208",
      "effectiveGasPrice": "0x5b8d80",
      "blobGasUsed": "0x39d0",
      "from": "0xc25af38a36d790f34176955fc81dee87adba071b",
      "to": "0xd5c766438c954f0c2da19ecbc7ad336e732272c9",
      "contractAddress": null,
      "daFootprintGasScalar": "0x94",
      "l1BaseFeeScalar": "0x44d",
      "l1BlobBaseFee": "0x2",
      "l1BlobBaseFeeScalar": "0xa118b",
      "l1Fee": "0x3f3",
      "l1GasPrice": "0x18",
      "l1GasUsed": "0x640"
    },
    {
      "status": "0x1",
      "cumulativeGasUsed": "0x61ca91",
      "logs": [
        {
          "address": "0xb85885897d297000a74ea2e4711c3ca729461abc",
          "topics": [
            "0xddf252ad1be2c89b69c2b068fc378daa952ba7f163c4a11628f55a4df523b3ef",
            "0x0000000000000000000000000000000000000000000000000000000000000000",
            "0x000000000000000000000000d5c766438c954f0c2da19ecbc7ad336e732272c9"
          ],
          "data": "0x0000000000000000000000000000000000000000000000000de0b6b3a7640000",
          "blockHash": "0x3e977fbc3b878eaf6a1ceee9571457ec8ecf6c6dba9a536859482d8f43bc0d3d",
          "blockNumber": "0x25d9b6b",
          "blockTimestamp": "0x69ce95b6",
          "transactionHash": "0xc4b9206e2ba7fb3e7a4c13210e2c656916cc94696ac54c023b5414680052889c",
          "transactionIndex": "0x1d",
          "logIndex": "0xc8",
          "removed": false
        }
      ],
      "logsBloom": "0x00000000000000000000000000001000000000000000000004000000000000000000000000000000000000000000000000000000000000000000000000100000000000000000000000000008000000000000000000000000000000000000000000000000020004000000000000000800000000000000000000000010000000000000400000000000000000000000020000000000000000000000000000000000000000000000000000000000000000000000000000000000000000000000000000000002000000000000000000000000000000000000000000000000000020000000000000000000000000000000000000000000000000000000000000000000",
      "type": "0x2",
      "transactionHash": "0xc4b9206e2ba7fb3e7a4c13210e2c656916cc94696ac54c023b5414680052889c",
      "transactionIndex": "0x1d",
      "blockHash": "0x3e977fbc3b878eaf6a1ceee9571457ec8ecf6c6dba9a536859482d8f43bc0d3d",
      "blockNumber": "0x25d9b6b",
      "gasUsed": "0xc7f6",
      "effectiveGasPrice": "0x5b8d80",
      "blobGasUsed": "0x39d0",
      "from": "0xc25af38a36d790f34176955fc81dee87adba071b",
      "to": "0xb85885897d297000a74ea2e4711c3ca729461abc",
      "contractAddress": null,
      "daFootprintGasScalar": "0x94",
      "l1BaseFeeScalar": "0x44d",
      "l1BlobBaseFee": "0x2",
      "l1BlobBaseFeeScalar": "0xa118b",
      "l1Fee": "0xae",
      "l1GasPrice": "0x18",
      "l1GasUsed": "0x640"
    },
    {
      "status": "0x1",
      "cumulativeGasUsed": "0x8e4992",
      "logs": [
        {
          "address": "0x096c7c41f0a1b8e2ec2bbfb0d52db86575330ed8",
          "topics": [
            "0x1cf3b03a6cf19fa2baba4df148e9dcabedea7f8a5c07840e207e5c089be95d3e",
            "0x00000000000000000000000036d5470d2e49307bd4ce42ad69c3a49ccb78fb64"
          ],
          "data": "0x",
          "blockHash": "0x0000000000000000000000000000000000000000000000000000000000000000",
          "blockNumber": "0x25d9b6c",
          "blockTimestamp": "0x69ce95b8",
          "transactionHash": "0x31fae2b3b1080fd806841e534605486aa51a60a7ca28bb06325222feabf8f205",
          "transactionIndex": "0x20",
          "logIndex": "0x118",
          "removed": false
        },
        {
          "address": "0x096c7c41f0a1b8e2ec2bbfb0d52db86575330ed8",
          "topics": [
            "0xc7f505b2f371ae2175ee4913f4499e1f2633a7b5936321eed1cdaeb6115181d2"
          ],
          "data": "0x0000000000000000000000000000000000000000000000000000000000000001",
          "blockHash": "0x0000000000000000000000000000000000000000000000000000000000000000",
          "blockNumber": "0x25d9b6c",
          "blockTimestamp": "0x69ce95b8",
          "transactionHash": "0x31fae2b3b1080fd806841e534605486aa51a60a7ca28bb06325222feabf8f205",
          "transactionIndex": "0x20",
          "logIndex": "0x119",
          "removed": false
        },
        {
          "address": "0x82678fdcad0d9795cc0c440945407c325c2273fc",
          "topics": [
            "0xb47cefea858b462f9da307185975aab31ba6d70b1f1a466c2df9684d581ef2af",
            "0x000000000000000000000000096c7c41f0a1b8e2ec2bbfb0d52db86575330ed8",
            "0x000000000000000000000000c25af38a36d790f34176955fc81dee87adba071b"
          ],
          "data": "0x00000000000000000000000000000000000000000000000000000000000000010000000000000000000000000000000000000000000000000000000000000001",
          "blockHash": "0x0000000000000000000000000000000000000000000000000000000000000000",
          "blockNumber": "0x25d9b6c",
          "blockTimestamp": "0x69ce95b8",
          "transactionHash": "0x31fae2b3b1080fd806841e534605486aa51a60a7ca28bb06325222feabf8f205",
          "transactionIndex": "0x20",
          "logIndex": "0x11a",
          "removed": false
        }
      ],
      "logsBloom": "0x00000000000000000000000000000000000000a00000000000000000000000000000000000000000000000000000000000000000000000040000000010000000000000000000000000000000001000000000200000000000000000000800000000000000000004000000000000200000000400000000000000000000000000000000000000000000000800000000082000000000000090000000000000000000000000000000000004000000000000000000000000000000000080000002000000000000000000040000000000000000000000000004400000800000000004000000000000000000000000000000000000000000000008000000000000000000",
      "type": "0x2",
      "transactionHash": "0x31fae2b3b1080fd806841e534605486aa51a60a7ca28bb06325222feabf8f205",
      "transactionIndex": "0x20",
      "blockHash": "0x0000000000000000000000000000000000000000000000000000000000000000",
      "blockNumber": "0x25d9b6c",
      "gasUsed": "0x9e445",
      "effectiveGasPrice": "0x5b8d80",
      "blobGasUsed": "0x70bc",
      "from": "0xc25af38a36d790f34176955fc81dee87adba071b",
      "to": "0x82678fdcad0d9795cc0c440945407c325c2273fc",
      "contractAddress": null,
      "daFootprintGasScalar": "0x94",
      "l1BaseFeeScalar": "0x44d",
      "l1BlobBaseFee": "0x2",
      "l1BlobBaseFeeScalar": "0xa118b",
      "l1Fee": "0xae",
      "l1GasPrice": "0x18",
      "l1GasUsed": "0xc3d"
    },
    {
      "status": "0x1",
      "cumulativeGasUsed": "0x8f6b9c",
      "logs": [
        {
          "address": "0xb85885897d297000a74ea2e4711c3ca729461abc",
          "topics": [
            "0x8c5be1e5ebec7d5bd14f71427d1e84f3dd0314c0f7b2291e5b200ac8c7c3b925",
            "0x00000000000000000000000063421019ca61d6435ae73aabe48cb54f9bea1772",
            "0x000000000000000000000000096c7c41f0a1b8e2ec2bbfb0d52db86575330ed8"
          ],
          "data": "0x0000000000000000000000000000000000000000000000000de0b6b3a7640000",
          "blockHash": "0x0000000000000000000000000000000000000000000000000000000000000000",
          "blockNumber": "0x25d9b6c",
          "blockTimestamp": "0x69ce95b8",
          "transactionHash": "0xa04109611fb7a29c86ff41bc4aacf3aacf3e266d6fd7dcb435b98ead0922b3a4",
          "transactionIndex": "0x22",
          "logIndex": "0x11b",
          "removed": false
        }
      ],
      "logsBloom": "0x00000000000000000000000000000000000000000000000004000000000000000000000000000000000000000000000000000000000000000000000000200000000000000000000000000000000000000000000000000000000000000000000000000000000004000000000000000000000000000000000000000000000000000000400000000000000000000000020000000000000000000000000000008000020000000020800000000000000000000000000000000000000000000000000000000000000000040000000000000000000000000000400000000000000000000010000000000000000000000000000000000000000000000000000000000000",
      "type": "0x2",
      "transactionHash": "0xa04109611fb7a29c86ff41bc4aacf3aacf3e266d6fd7dcb435b98ead0922b3a4",
      "transactionIndex": "0x22",
      "blockHash": "0x0000000000000000000000000000000000000000000000000000000000000000",
      "blockNumber": "0x25d9b6c",
      "gasUsed": "0xb45e",
      "effectiveGasPrice": "0x5b8d80",
      "blobGasUsed": "0x39d0",
      "from": "0x63421019ca61d6435ae73aabe48cb54f9bea1772",
      "to": "0xb85885897d297000a74ea2e4711c3ca729461abc",
      "contractAddress": null,
      "daFootprintGasScalar": "0x94",
      "l1BaseFeeScalar": "0x44d",
      "l1BlobBaseFee": "0x2",
      "l1BlobBaseFeeScalar": "0xa118b",
      "l1Fee": "0xae",
      "l1GasPrice": "0x18",
      "l1GasUsed": "0x640"
    },
    {
      "status": "0x1",
      "cumulativeGasUsed": "0x40b54d",
      "logs": [
        {
          "address": "0xb85885897d297000a74ea2e4711c3ca729461abc",
          "topics": [
            "0xddf252ad1be2c89b69c2b068fc378daa952ba7f163c4a11628f55a4df523b3ef",
            "0x00000000000000000000000063421019ca61d6435ae73aabe48cb54f9bea1772",
            "0x000000000000000000000000096c7c41f0a1b8e2ec2bbfb0d52db86575330ed8"
          ],
          "data": "0x0000000000000000000000000000000000000000000000000de0b6b3a7640000",
          "blockHash": "0x0000000000000000000000000000000000000000000000000000000000000000",
          "blockNumber": "0x25d9b6d",
          "blockTimestamp": "0x69ce95ba",
          "transactionHash": "0x3e7433374bedba2b18bc06c9634d6b9933cbe36ac36b781486efe9a447aa2ff5",
          "transactionIndex": "0x13",
          "logIndex": "0x9b",
          "removed": false
        },
        {
          "address": "0x096c7c41f0a1b8e2ec2bbfb0d52db86575330ed8",
          "topics": [
            "0xeccab018928cd98391698b9eda1634eb439586f0434b06685c28e1dbd86034e5",
            "0x00000000000000000000000063421019ca61d6435ae73aabe48cb54f9bea1772",
            "0x0000000000000000000000000000000000000000000000000000000000000000"
          ],
          "data": "0x0000000000000000000000000000000000000000000000000de0b6b3a76400000000000000000000000000000000000000000000000000000de0b6b3a7640000",
          "blockHash": "0x0000000000000000000000000000000000000000000000000000000000000000",
          "blockNumber": "0x25d9b6d",
          "blockTimestamp": "0x69ce95ba",
          "transactionHash": "0x3e7433374bedba2b18bc06c9634d6b9933cbe36ac36b781486efe9a447aa2ff5",
          "transactionIndex": "0x13",
          "logIndex": "0x9c",
          "removed": false
        },
        {
          "address": "0x096c7c41f0a1b8e2ec2bbfb0d52db86575330ed8",
          "topics": [
            "0x07ae9ff1ff5922feb7221008b80a606dce2b123504acb459285fc38250e06397",
            "0x0000000000000000000000000000000000000000000000000000000000000000"
          ],
          "data": "0x0000000000000000000000000000000000000000000000000000000069ce95a2",
          "blockHash": "0x0000000000000000000000000000000000000000000000000000000000000000",
          "blockNumber": "0x25d9b6d",
          "blockTimestamp": "0x69ce95ba",
          "transactionHash": "0x3e7433374bedba2b18bc06c9634d6b9933cbe36ac36b781486efe9a447aa2ff5",
          "transactionIndex": "0x13",
          "logIndex": "0x9d",
          "removed": false
        }
      ],
      "logsBloom": "0x00000000000000000000000000000000000000000000000004000000000000000000000000000000000000000000000000000000000000040000000000000000000000000000000000000008000000000000000000000000000000000000000000000000020004000000000000000800000000000000000000000010000000000000400000000000000000000000022000000004000000000000000000008000000000000020800000000000000000000000000000000000000000000000000000000002004000040004000000000000000000000000400000000000000024402000000000200000000000000000000000000000000000000000000000000000",
      "type": "0x2",
      "transactionHash": "0x3e7433374bedba2b18bc06c9634d6b9933cbe36ac36b781486efe9a447aa2ff5",
      "transactionIndex": "0x13",
      "blockHash": "0x0000000000000000000000000000000000000000000000000000000000000000",
      "blockNumber": "0x25d9b6d",
      "gasUsed": "0x25793",
      "effectiveGasPrice": "0x5b8d80",
      "blobGasUsed": "0x39d0",
      "from": "0x63421019ca61d6435ae73aabe48cb54f9bea1772",
      "to": "0x096c7c41f0a1b8e2ec2bbfb0d52db86575330ed8",
      "contractAddress": null,
      "daFootprintGasScalar": "0x94",
      "l1BaseFeeScalar": "0x44d",
      "l1BlobBaseFee": "0x1",
      "l1BlobBaseFeeScalar": "0xa118b",
      "l1Fee": "0x68",
      "l1GasPrice": "0x16",
      "l1GasUsed": "0x640"
    },
    {
      "status": "0x1",
      "cumulativeGasUsed": "0x4a69ed",
      "logs": [
        {
          "address": "0xb85885897d297000a74ea2e4711c3ca729461abc",
          "topics": [
            "0x8c5be1e5ebec7d5bd14f71427d1e84f3dd0314c0f7b2291e5b200ac8c7c3b925",
            "0x0000000000000000000000002c6b1d5572277e34dc96ecb4b74b1196e24a79e6",
            "0x000000000000000000000000096c7c41f0a1b8e2ec2bbfb0d52db86575330ed8"
          ],
          "data": "0x0000000000000000000000000000000000000000000000000de0b6b3a7640000",
          "blockHash": "0xd1fd066cfb858b9fcae714101758fe99e6dcd19607b0a529f261dea53b70e4d6",
          "blockNumber": "0x25d9b6d",
          "blockTimestamp": "0x69ce95ba",
          "transactionHash": "0x58a50815e356020df55db9db993f4d44ab349f5bac3c70dce21a1ee0455f2501",
          "transactionIndex": "0x19",
          "logIndex": "0x9e",
          "removed": false
        }
      ],
      "logsBloom": "0x00000000000000000000000000000000000000000000000004000000000000000000000000000000000000000000000000000000000000000000000000200000000000000000000000000000000000000000000000000000000000000000000000000000000004000100000000000000000000000000000000000000000000000000400000000000000000000000020000000000000000000000000000000000020000001000000000000000000000000000000100000000000000000000000000000000000000040000000000000000000000000000400000000000000000000010000000000000000000000000000000000000000000000000000000000000",
      "type": "0x2",
      "transactionHash": "0x58a50815e356020df55db9db993f4d44ab349f5bac3c70dce21a1ee0455f2501",
      "transactionIndex": "0x19",
      "blockHash": "0xd1fd066cfb858b9fcae714101758fe99e6dcd19607b0a529f261dea53b70e4d6",
      "blockNumber": "0x25d9b6d",
      "gasUsed": "0xb45e",
      "effectiveGasPrice": "0x5b8d80",
      "blobGasUsed": "0x39d0",
      "from": "0x2c6b1d5572277e34dc96ecb4b74b1196e24a79e6",
      "to": "0xb85885897d297000a74ea2e4711c3ca729461abc",
      "contractAddress": null,
      "daFootprintGasScalar": "0x94",
      "l1BaseFeeScalar": "0x44d",
      "l1BlobBaseFee": "0x1",
      "l1BlobBaseFeeScalar": "0xa118b",
      "l1Fee": "0x68",
      "l1GasPrice": "0x16",
      "l1GasUsed": "0x640"
    },
    {
      "status": "0x1",
      "cumulativeGasUsed": "0xa5ec28",
      "logs": [
        {
          "address": "0xb85885897d297000a74ea2e4711c3ca729461abc",
          "topics": [
            "0xddf252ad1be2c89b69c2b068fc378daa952ba7f163c4a11628f55a4df523b3ef",
            "0x0000000000000000000000002c6b1d5572277e34dc96ecb4b74b1196e24a79e6",
            "0x000000000000000000000000096c7c41f0a1b8e2ec2bbfb0d52db86575330ed8"
          ],
          "data": "0x0000000000000000000000000000000000000000000000000de0b6b3a7640000",
          "blockHash": "0x0000000000000000000000000000000000000000000000000000000000000000",
          "blockNumber": "0x25d9b6e",
          "blockTimestamp": "0x69ce95bc",
          "transactionHash": "0x856c11bebae69ceb6b10b8e3a8374192404b1b1d44021c736eb6790b136140c7",
          "transactionIndex": "0x1d",
          "logIndex": "0xa8",
          "removed": false
        },
        {
          "address": "0x096c7c41f0a1b8e2ec2bbfb0d52db86575330ed8",
          "topics": [
            "0xeccab018928cd98391698b9eda1634eb439586f0434b06685c28e1dbd86034e5",
            "0x0000000000000000000000002c6b1d5572277e34dc96ecb4b74b1196e24a79e6",
            "0x0000000000000000000000000000000000000000000000000000000000000000"
          ],
          "data": "0x0000000000000000000000000000000000000000000000000de0b6b3a76400000000000000000000000000000000000000000000000000000de0b6b3a7640000",
          "blockHash": "0x0000000000000000000000000000000000000000000000000000000000000000",
          "blockNumber": "0x25d9b6e",
          "blockTimestamp": "0x69ce95bc",
          "transactionHash": "0x856c11bebae69ceb6b10b8e3a8374192404b1b1d44021c736eb6790b136140c7",
          "transactionIndex": "0x1d",
          "logIndex": "0xa9",
          "removed": false
        }
      ],
      "logsBloom": "0x00000000000000000000000000000000000000000000000004000000000000000000000000000000000000000000000000000000000000040000000000000000000000000000000000000008000000000000000000000000000000000000000000000000020004000100000000000800000000000000000000000010000000000000400000000000000000000000022000000004000000000000000000000000000000001000000000000000000000000000000100000000000000000000000000000002000000040004000000000000000000000000400000000000000024002000000000000000000000000000000000000000000000000000000000000000",
      "type": "0x2",
      "transactionHash": "0x856c11bebae69ceb6b10b8e3a8374192404b1b1d44021c736eb6790b136140c7",
      "transactionIndex": "0x1d",
      "blockHash": "0x0000000000000000000000000000000000000000000000000000000000000000",
      "blockNumber": "0x25d9b6e",
      "gasUsed": "0x1893d",
      "effectiveGasPrice": "0x5b8d80",
      "blobGasUsed": "0x39d0",
      "from": "0x2c6b1d5572277e34dc96ecb4b74b1196e24a79e6",
      "to": "0x096c7c41f0a1b8e2ec2bbfb0d52db86575330ed8",
      "contractAddress": null,
      "daFootprintGasScalar": "0x94",
      "l1BaseFeeScalar": "0x44d",
      "l1BlobBaseFee": "0x1",
      "l1BlobBaseFeeScalar": "0xa118b",
      "l1Fee": "0x8e",
      "l1GasPrice": "0x16",
      "l1GasUsed": "0x640"
    },
    {
      "status": "0x1",
      "cumulativeGasUsed": "0xa71922",
      "logs": [
        {
          "address": "0xb85885897d297000a74ea2e4711c3ca729461abc",
          "topics": [
            "0x8c5be1e5ebec7d5bd14f71427d1e84f3dd0314c0f7b2291e5b200ac8c7c3b925",
            "0x000000000000000000000000d5c766438c954f0c2da19ecbc7ad336e732272c9",
            "0x000000000000000000000000096c7c41f0a1b8e2ec2bbfb0d52db86575330ed8"
          ],
          "data": "0x0000000000000000000000000000000000000000000000000de0b6b3a7640000",
          "blockHash": "0x0000000000000000000000000000000000000000000000000000000000000000",
          "blockNumber": "0x25d9b6e",
          "blockTimestamp": "0x69ce95bc",
          "transactionHash": "0x1929eddd355ee0aab479fa74d111e268080d5d6aebaf16ad2bcb8f0c59787161",
          "transactionIndex": "0x1f",
          "logIndex": "0xaa",
          "removed": false
        }
      ],
      "logsBloom": "0x00000000000000000000000000001000000000000000000004000000000000000000000000000000000000000000000000000000000000000000000000300000000000000000000000000000000000000000000000000000000000000000000000000000000004000000000000000000000000000000000000000000000000000000400000000000000000000000020000000000000000000000000000000000020000000000000000000000000000000000000000000000000000000000000000000000000000040000000000000000000000000000400000000000000000000010000000000000000000000000000000000000000000000000000000000000",
      "type": "0x2",
      "transactionHash": "0x1929eddd355ee0aab479fa74d111e268080d5d6aebaf16ad2bcb8f0c59787161",
      "transactionIndex": "0x1f",
      "blockHash": "0x0000000000000000000000000000000000000000000000000000000000000000",
      "blockNumber": "0x25d9b6e",
      "gasUsed": "0xb45e",
      "effectiveGasPrice": "0x5b8d80",
      "blobGasUsed": "0x39d0",
      "from": "0xd5c766438c954f0c2da19ecbc7ad336e732272c9",
      "to": "0xb85885897d297000a74ea2e4711c3ca729461abc",
      "contractAddress": null,
      "daFootprintGasScalar": "0x94",
      "l1BaseFeeScalar": "0x44d",
      "l1BlobBaseFee": "0x1",
      "l1BlobBaseFeeScalar": "0xa118b",
      "l1Fee": "0x68",
      "l1GasPrice": "0x16",
      "l1GasUsed": "0x640"
    },
    {
      "status": "0x1",
      "cumulativeGasUsed": "0x6fad2c",
      "logs": [
        {
          "address": "0xb85885897d297000a74ea2e4711c3ca729461abc",
          "topics": [
            "0xddf252ad1be2c89b69c2b068fc378daa952ba7f163c4a11628f55a4df523b3ef",
            "0x000000000000000000000000d5c766438c954f0c2da19ecbc7ad336e732272c9",
            "0x000000000000000000000000096c7c41f0a1b8e2ec2bbfb0d52db86575330ed8"
          ],
          "data": "0x0000000000000000000000000000000000000000000000000de0b6b3a7640000",
          "blockHash": "0x0000000000000000000000000000000000000000000000000000000000000000",
          "blockNumber": "0x25d9b6f",
          "blockTimestamp": "0x69ce95be",
          "transactionHash": "0x6ae191393a9f9d8fbb4ed0c4b2da76f383d1aa535c678f6a0018060e93bd314d",
          "transactionIndex": "0x1d",
          "logIndex": "0xff",
          "removed": false
        },
        {
          "address": "0x096c7c41f0a1b8e2ec2bbfb0d52db86575330ed8",
          "topics": [
            "0xeccab018928cd98391698b9eda1634eb439586f0434b06685c28e1dbd86034e5",
            "0x000000000000000000000000d5c766438c954f0c2da19ecbc7ad336e732272c9",
            "0x0000000000000000000000000000000000000000000000000000000000000000"
          ],
          "data": "0x0000000000000000000000000000000000000000000000000de0b6b3a76400000000000000000000000000000000000000000000000000000de0b6b3a7640000",
          "blockHash": "0x0000000000000000000000000000000000000000000000000000000000000000",
          "blockNumber": "0x25d9b6f",
          "blockTimestamp": "0x69ce95be",
          "transactionHash": "0x6ae191393a9f9d8fbb4ed0c4b2da76f383d1aa535c678f6a0018060e93bd314d",
          "transactionIndex": "0x1d",
          "logIndex": "0x100",
          "removed": false
        }
      ],
      "logsBloom": "0x00000000000000000000000000001000000000000000000004000000000000000000000000000000000000000000000000000000000000040000000000100000000000000000000000000008000000000000000000000000000000000000000000000000020004000000000000000800000000000000000000000010000000000000400000000000000000000000022000000004000000000000000000000000000000000000000000000000000000000000000000000000000000000000000000000002000000040004000000000000000000000000400000000000000024002000000000000000000000000000000000000000000000000000000000000000",
      "type": "0x2",
      "transactionHash": "0x6ae191393a9f9d8fbb4ed0c4b2da76f383d1aa535c678f6a0018060e93bd314d",
      "transactionIndex": "0x1d",
      "blockHash": "0x0000000000000000000000000000000000000000000000000000000000000000",
      "blockNumber": "0x25d9b6f",
      "gasUsed": "0x1893d",
      "effectiveGasPrice": "0x5b8d80",
      "blobGasUsed": "0x39d0",
      "from": "0xd5c766438c954f0c2da19ecbc7ad336e732272c9",
      "to": "0x096c7c41f0a1b8e2ec2bbfb0d52db86575330ed8",
      "contractAddress": null,
      "daFootprintGasScalar": "0x94",
      "l1BaseFeeScalar": "0x44d",
      "l1BlobBaseFee": "0x1",
      "l1BlobBaseFeeScalar": "0xa118b",
      "l1Fee": "0x68",
      "l1GasPrice": "0x16",
      "l1GasUsed": "0x640"
    },
    {
      "status": "0x1",
      "cumulativeGasUsed": "0x8db430",
      "logs": [
        {
          "address": "0xb85885897d297000a74ea2e4711c3ca729461abc",
          "topics": [
            "0x8c5be1e5ebec7d5bd14f71427d1e84f3dd0314c0f7b2291e5b200ac8c7c3b925",
            "0x000000000000000000000000096c7c41f0a1b8e2ec2bbfb0d52db86575330ed8",
            "0x00000000000000000000000082678fdcad0d9795cc0c440945407c325c2273fc"
          ],
          "data": "0x00000000000000000000000000000000000000000000000029a2241af62c0000",
          "blockHash": "0x80f0f47db1f617f15b430963d92924f0742f32fe08fbb6bc13fe644725c7751e",
          "blockNumber": "0x25d9b6f",
          "blockTimestamp": "0x69ce95be",
          "transactionHash": "0x0e2a9462306875e203e0b77029ca972bc35f4db6a7a6e9c1130d8097324ce48c",
          "transactionIndex": "0x24",
          "logIndex": "0x114",
          "removed": false
        },
        {
          "address": "0xe0cc9ef22a64b2b3ca028e3e83b8fc69f062b8ac",
          "topics": [
            "0xddf252ad1be2c89b69c2b068fc378daa952ba7f163c4a11628f55a4df523b3ef",
            "0x0000000000000000000000000000000000000000000000000000000000000000",
            "0x000000000000000000000000f020c709fe9ae902e3cded1e50ca01021ce968e8"
          ],
          "data": "0x00000000000000000000000000000000000000000000de589d32bd931c400000",
          "blockHash": "0x80f0f47db1f617f15b430963d92924f0742f32fe08fbb6bc13fe644725c7751e",
          "blockNumber": "0x25d9b6f",
          "blockTimestamp": "0x69ce95be",
          "transactionHash": "0x0e2a9462306875e203e0b77029ca972bc35f4db6a7a6e9c1130d8097324ce48c",
          "transactionIndex": "0x24",
          "logIndex": "0x115",
          "removed": false
        },
        {
          "address": "0xe0cc9ef22a64b2b3ca028e3e83b8fc69f062b8ac",
          "topics": [
            "0xddf252ad1be2c89b69c2b068fc378daa952ba7f163c4a11628f55a4df523b3ef",
            "0x000000000000000000000000f020c709fe9ae902e3cded1e50ca01021ce968e8",
            "0x00000000000000000000000082678fdcad0d9795cc0c440945407c325c2273fc"
          ],
          "data": "0x00000000000000000000000000000000000000000000de589d32bd931c400000",
          "blockHash": "0x80f0f47db1f617f15b430963d92924f0742f32fe08fbb6bc13fe644725c7751e",
          "blockNumber": "0x25d9b6f",
          "blockTimestamp": "0x69ce95be",
          "transactionHash": "0x0e2a9462306875e203e0b77029ca972bc35f4db6a7a6e9c1130d8097324ce48c",
          "transactionIndex": "0x24",
          "logIndex": "0x116",
          "removed": false
        },
        {
          "address": "0xf020c709fe9ae902e3cded1e50ca01021ce968e8",
          "topics": [
            "0x5c088440a5ebbf647b6d40edac901a3319ab1219de322aadcd5e7046e0a2eab8"
          ],
          "data": "0x000000000000000000000000e0cc9ef22a64b2b3ca028e3e83b8fc69f062b8ac00000000000000000000000000000000000000000000000000000000000000c00000000000000000000000000000000000000000000000000000000000000100000000000000000000000000000000000000000000000000000000000000001200000000000000000000000000000000000000000000de589d32bd931c40000000000000000000000000000082678fdcad0d9795cc0c440945407c325c2273fc00000000000000000000000000000000000000000000000000000000000000084c6f6f70686f6c6500000000000000000000000000000000000000000000000000000000000000000000000000000000000000000000000000000000000000044c4f4f5000000000000000000000000000000000000000000000000000000000",
          "blockHash": "0x80f0f47db1f617f15b430963d92924f0742f32fe08fbb6bc13fe644725c7751e",
          "blockNumber": "0x25d9b6f",
          "blockTimestamp": "0x69ce95be",
          "transactionHash": "0x0e2a9462306875e203e0b77029ca972bc35f4db6a7a6e9c1130d8097324ce48c",
          "transactionIndex": "0x24",
          "logIndex": "0x117",
          "removed": false
        },
        {
          "address": "0xb85885897d297000a74ea2e4711c3ca729461abc",
          "topics": [
            "0xddf252ad1be2c89b69c2b068fc378daa952ba7f163c4a11628f55a4df523b3ef",
            "0x000000000000000000000000096c7c41f0a1b8e2ec2bbfb0d52db86575330ed8",
            "0x00000000000000000000000082678fdcad0d9795cc0c440945407c325c2273fc"
          ],
          "data": "0x00000000000000000000000000000000000000000000000029a2241af62c0000",
          "blockHash": "0x80f0f47db1f617f15b430963d92924f0742f32fe08fbb6bc13fe644725c7751e",
          "blockNumber": "0x25d9b6f",
          "blockTimestamp": "0x69ce95be",
          "transactionHash": "0x0e2a9462306875e203e0b77029ca972bc35f4db6a7a6e9c1130d8097324ce48c",
          "transactionIndex": "0x24",
          "logIndex": "0x118",
          "removed": false
        },
        {
          "address": "0xb85885897d297000a74ea2e4711c3ca729461abc",
          "topics": [
            "0x8c5be1e5ebec7d5bd14f71427d1e84f3dd0314c0f7b2291e5b200ac8c7c3b925",
            "0x00000000000000000000000082678fdcad0d9795cc0c440945407c325c2273fc",
            "0x000000000000000000000000f020c709fe9ae902e3cded1e50ca01021ce968e8"
          ],
          "data": "0x00000000000000000000000000000000000000000000000029a2241af62c0000",
          "blockHash": "0x80f0f47db1f617f15b430963d92924f0742f32fe08fbb6bc13fe644725c7751e",
          "blockNumber": "0x25d9b6f",
          "blockTimestamp": "0x69ce95be",
          "transactionHash": "0x0e2a9462306875e203e0b77029ca972bc35f4db6a7a6e9c1130d8097324ce48c",
          "transactionIndex": "0x24",
          "logIndex": "0x119",
          "removed": false
        },
        {
          "address": "0xe0cc9ef22a64b2b3ca028e3e83b8fc69f062b8ac",
          "topics": [
            "0x8c5be1e5ebec7d5bd14f71427d1e84f3dd0314c0f7b2291e5b200ac8c7c3b925",
            "0x00000000000000000000000082678fdcad0d9795cc0c440945407c325c2273fc",
            "0x000000000000000000000000f020c709fe9ae902e3cded1e50ca01021ce968e8"
          ],
          "data": "0x00000000000000000000000000000000000000000000d3c21bcecceda1000000",
          "blockHash": "0x80f0f47db1f617f15b430963d92924f0742f32fe08fbb6bc13fe644725c7751e",
          "blockNumber": "0x25d9b6f",
          "blockTimestamp": "0x69ce95be",
          "transactionHash": "0x0e2a9462306875e203e0b77029ca972bc35f4db6a7a6e9c1130d8097324ce48c",
          "transactionIndex": "0x24",
          "logIndex": "0x11a",
          "removed": false
        },
        {
          "address": "0xf020c709fe9ae902e3cded1e50ca01021ce968e8",
          "topics": [
            "0x6b40d9ac9d9dcc4ba6477664fdae5809a701208c8db1cbb7bc759993691146a9"
          ],
          "data": "0x000000000000000000000000e0cc9ef22a64b2b3ca028e3e83b8fc69f062b8ac0000000000000000000000000000000000000000000000000000394c549ef00000000000000000000000000000000000000000000000000000003416d8907d17000000000000000000000000000000000000000000000000002386f26fc10000",
          "blockHash": "0x80f0f47db1f617f15b430963d92924f0742f32fe08fbb6bc13fe644725c7751e",
          "blockNumber": "0x25d9b6f",
          "blockTimestamp": "0x69ce95be",
          "transactionHash": "0x0e2a9462306875e203e0b77029ca972bc35f4db6a7a6e9c1130d8097324ce48c",
          "transactionIndex": "0x24",
          "logIndex": "0x11b",
          "removed": false
        },
        {
          "address": "0xe0cc9ef22a64b2b3ca028e3e83b8fc69f062b8ac",
          "topics": [
            "0xddf252ad1be2c89b69c2b068fc378daa952ba7f163c4a11628f55a4df523b3ef",
            "0x00000000000000000000000082678fdcad0d9795cc0c440945407c325c2273fc",
            "0x000000000000000000000000f020c709fe9ae902e3cded1e50ca01021ce968e8"
          ],
          "data": "0x00000000000000000000000000000000000000000000d3c21bcecceda1000000",
          "blockHash": "0x80f0f47db1f617f15b430963d92924f0742f32fe08fbb6bc13fe644725c7751e",
          "blockNumber": "0x25d9b6f",
          "blockTimestamp": "0x69ce95be",
          "transactionHash": "0x0e2a9462306875e203e0b77029ca972bc35f4db6a7a6e9c1130d8097324ce48c",
          "transactionIndex": "0x24",
          "logIndex": "0x11c",
          "removed": false
        },
        {
          "address": "0xb85885897d297000a74ea2e4711c3ca729461abc",
          "topics": [
            "0xddf252ad1be2c89b69c2b068fc378daa952ba7f163c4a11628f55a4df523b3ef",
            "0x00000000000000000000000082678fdcad0d9795cc0c440945407c325c2273fc",
            "0x000000000000000000000000f020c709fe9ae902e3cded1e50ca01021ce968e8"
          ],
          "data": "0x00000000000000000000000000000000000000000000000029a2241af62c0000",
          "blockHash": "0x80f0f47db1f617f15b430963d92924f0742f32fe08fbb6bc13fe644725c7751e",
          "blockNumber": "0x25d9b6f",
          "blockTimestamp": "0x69ce95be",
          "transactionHash": "0x0e2a9462306875e203e0b77029ca972bc35f4db6a7a6e9c1130d8097324ce48c",
          "transactionIndex": "0x24",
          "logIndex": "0x11d",
          "removed": false
        },
        {
          "address": "0xf020c709fe9ae902e3cded1e50ca01021ce968e8",
          "topics": [
            "0x28dfb2e3cc3e295eff8199284d79be6ddc49171b1382fda8dd2ee934ed923483"
          ],
          "data": "0x000000000000000000000000e0cc9ef22a64b2b3ca028e3e83b8fc69f062b8ac000000000000000000000000b85885897d297000a74ea2e4711c3ca729461abc000000000000000000000000c25af38a36d790f34176955fc81dee87adba071b000000000000000000000000c996f3484fe1dfdac69e63d52838385a21e53bb800000000000000000000000000000000000000000000000000000000000000640000000000000000000000000000000000000000000000000000394c549ef00000000000000000000000000000000000000000000000000000003416d8907d1700000000000000000000000000000000000000000000000029a2241af62c000000000000000000000000000000000000000000000000d3c21bcecceda100000000000000000000000000000000000000000000000000000000000000000000000000000000000000000000000000000000000000000000000000000000000000dfded4ed5ac76ba7379cfe7b3b0f53e768dca8d45a34854e649cfc3c18cbd9cd",
          "blockHash": "0x80f0f47db1f617f15b430963d92924f0742f32fe08fbb6bc13fe644725c7751e",
          "blockNumber": "0x25d9b6f",
          "blockTimestamp": "0x69ce95be",
          "transactionHash": "0x0e2a9462306875e203e0b77029ca972bc35f4db6a7a6e9c1130d8097324ce48c",
          "transactionIndex": "0x24",
          "logIndex": "0x11e",
          "removed": false
        },
        {
          "address": "0xe0cc9ef22a64b2b3ca028e3e83b8fc69f062b8ac",
          "topics": [
            "0xddf252ad1be2c89b69c2b068fc378daa952ba7f163c4a11628f55a4df523b3ef",
            "0x00000000000000000000000082678fdcad0d9795cc0c440945407c325c2273fc",
            "0x000000000000000000000000096c7c41f0a1b8e2ec2bbfb0d52db86575330ed8"
          ],
          "data": "0x000000000000000000000000000000000000000000000a968163f0a57b400000",
          "blockHash": "0x80f0f47db1f617f15b430963d92924f0742f32fe08fbb6bc13fe644725c7751e",
          "blockNumber": "0x25d9b6f",
          "blockTimestamp": "0x69ce95be",
          "transactionHash": "0x0e2a9462306875e203e0b77029ca972bc35f4db6a7a6e9c1130d8097324ce48c",
          "transactionIndex": "0x24",
          "logIndex": "0x11f",
          "removed": false
        },
        {
          "address": "0x096c7c41f0a1b8e2ec2bbfb0d52db86575330ed8",
          "topics": [
            "0xd9208bc50bbd936cab8abdd05c5c2924d307d7bce74722f683c79307df3bbe3f",
            "0x000000000000000000000000e0cc9ef22a64b2b3ca028e3e83b8fc69f062b8ac"
          ],
          "data": "0x000000000000000000000000000000000000000000000000000000000000006000000000000000000000000000000000000000000000000000000000000000a000000000000000000000000000000000000000000000de589d32bd931c40000000000000000000000000000000000000000000000000000000000000000000084c6f6f70686f6c6500000000000000000000000000000000000000000000000000000000000000000000000000000000000000000000000000000000000000044c4f4f5000000000000000000000000000000000000000000000000000000000",
          "blockHash": "0x80f0f47db1f617f15b430963d92924f0742f32fe08fbb6bc13fe644725c7751e",
          "blockNumber": "0x25d9b6f",
          "blockTimestamp": "0x69ce95be",
          "transactionHash": "0x0e2a9462306875e203e0b77029ca972bc35f4db6a7a6e9c1130d8097324ce48c",
          "transactionIndex": "0x24",
          "logIndex": "0x120",
          "removed": false
        },
        {
          "address": "0x096c7c41f0a1b8e2ec2bbfb0d52db86575330ed8",
          "topics": [
            "0xee1fe091a5213b321c2662b35c0b7cd0d35d10dbcab52b3c9b8768983c67bce3",
            "0x000000000000000000000000e0cc9ef22a64b2b3ca028e3e83b8fc69f062b8ac",
            "0x01c317a7a77f435395586747e13604122c6eb46d82a438a583eb0642fd2be8fe"
          ],
          "data": "0x",
          "blockHash": "0x80f0f47db1f617f15b430963d92924f0742f32fe08fbb6bc13fe644725c7751e",
          "blockNumber": "0x25d9b6f",
          "blockTimestamp": "0x69ce95be",
          "transactionHash": "0x0e2a9462306875e203e0b77029ca972bc35f4db6a7a6e9c1130d8097324ce48c",
          "transactionIndex": "0x24",
          "logIndex": "0x121",
          "removed": false
        },
        {
          "address": "0x096c7c41f0a1b8e2ec2bbfb0d52db86575330ed8",
          "topics": [
            "0x46f001ca012777c67a1ea3e8664df457afdde246bde363efc5a451f3588f2ba7",
            "0x000000000000000000000000e0cc9ef22a64b2b3ca028e3e83b8fc69f062b8ac",
            "0x01c317a7a77f435395586747e13604122c6eb46d82a438a583eb0642fd2be8fe"
          ],
          "data": "0x00000000000000000000000000000000000000000000000029a2241af62c0000",
          "blockHash": "0x80f0f47db1f617f15b430963d92924f0742f32fe08fbb6bc13fe644725c7751e",
          "blockNumber": "0x25d9b6f",
          "blockTimestamp": "0x69ce95be",
          "transactionHash": "0x0e2a9462306875e203e0b77029ca972bc35f4db6a7a6e9c1130d8097324ce48c",
          "transactionIndex": "0x24",
          "logIndex": "0x122",
          "removed": false
        }
      ],
      "logsBloom": "0x00200000000000000200200000000000800000000000000004002000002010000000000000000000400000000000000000000000000000040000000000200000000000000000000000000008020000000000000000000000000800004001000400000000020004000000000000001800000000000200000000020010000000000000400000000000000000000000022000000000000000000000200000000000020000000000000210000000000000000000000200000000000000000002100000000002000000040010200000200000000002000000400000020020000024000010000000000000840000000040004000000000000000000000080204000000",
      "type": "0x2",
      "transactionHash": "0x0e2a9462306875e203e0b77029ca972bc35f4db6a7a6e9c1130d8097324ce48c",
      "transactionIndex": "0x24",
      "blockHash": "0x80f0f47db1f617f15b430963d92924f0742f32fe08fbb6bc13fe644725c7751e",
      "blockNumber": "0x25d9b6f",
      "gasUsed": "0x129486",
      "effectiveGasPrice": "0x5b8d80",
      "blobGasUsed": "0x5c80",
      "from": "0xc25af38a36d790f34176955fc81dee87adba071b",
      "to": "0x096c7c41f0a1b8e2ec2bbfb0d52db86575330ed8",
      "contractAddress": null,
      "daFootprintGasScalar": "0x94",
      "l1BaseFeeScalar": "0x44d",
      "l1BlobBaseFee": "0x1",
      "l1BlobBaseFeeScalar": "0xa118b",
      "l1Fee": "0xa8",
      "l1GasPrice": "0x16",
      "l1GasUsed": "0xa0a"
    },
    {
      "status": "0x1",
      "cumulativeGasUsed": "0x645f0e",
      "logs": [
        {
          "address": "0xe0cc9ef22a64b2b3ca028e3e83b8fc69f062b8ac",
          "topics": [
            "0xddf252ad1be2c89b69c2b068fc378daa952ba7f163c4a11628f55a4df523b3ef",
            "0x000000000000000000000000096c7c41f0a1b8e2ec2bbfb0d52db86575330ed8",
            "0x00000000000000000000000063421019ca61d6435ae73aabe48cb54f9bea1772"
          ],
          "data": "0x0000000000000000000000000000000000000000000003878076a58c7e6aaaaa",
          "blockHash": "0x060a777fc89144907463072d0072d6e2e0ea814da38e0ff93dacfa2c1f6150a0",
          "blockNumber": "0x25d9b70",
          "blockTimestamp": "0x69ce95c0",
          "transactionHash": "0xfe99100a64951981317543297b52598561ec715bc643d380b3e45fd91ee4f3bf",
          "transactionIndex": "0x1f",
          "logIndex": "0xc9",
          "removed": false
        },
        {
          "address": "0x096c7c41f0a1b8e2ec2bbfb0d52db86575330ed8",
          "topics": [
            "0x48e2b34d86dae2a72892db2a5002a101f62a565cb381ece1a353711907989677",
            "0x00000000000000000000000063421019ca61d6435ae73aabe48cb54f9bea1772"
          ],
          "data": "0x0000000000000000000000000000000000000000000003878076a58c7e6aaaaa",
          "blockHash": "0x060a777fc89144907463072d0072d6e2e0ea814da38e0ff93dacfa2c1f6150a0",
          "blockNumber": "0x25d9b70",
          "blockTimestamp": "0x69ce95c0",
          "transactionHash": "0xfe99100a64951981317543297b52598561ec715bc643d380b3e45fd91ee4f3bf",
          "transactionIndex": "0x1f",
          "logIndex": "0xca",
          "removed": false
        }
      ],
      "logsBloom": "0x00000000000000000000000000000000000000200000000000000000000000000000000000000040400000000000000000000000000000040000000000000000000000000000000000000008000000000000000000000000000000000000000000000000000004000000000000000000000000000000000000000010000000000000000000000000000000000000002000000000000000000000000000008000000000000020800200000000000000000020000200000000000000000000000000000002000000040000000000000000000000000000400000000000000004000000000000000000000000000000000000000000000000000000000000000000",
      "type": "0x2",
      "transactionHash": "0xfe99100a64951981317543297b52598561ec715bc643d380b3e45fd91ee4f3bf",
      "transactionIndex": "0x1f",
      "blockHash": "0x060a777fc89144907463072d0072d6e2e0ea814da38e0ff93dacfa2c1f6150a0",
      "blockNumber": "0x25d9b70",
      "gasUsed": "0x18e9a",
      "effectiveGasPrice": "0x5b8d80",
      "blobGasUsed": "0x39d0",
      "from": "0x63421019ca61d6435ae73aabe48cb54f9bea1772",
      "to": "0x096c7c41f0a1b8e2ec2bbfb0d52db86575330ed8",
      "contractAddress": null,
      "daFootprintGasScalar": "0x94",
      "l1BaseFeeScalar": "0x44d",
      "l1BlobBaseFee": "0x1",
      "l1BlobBaseFeeScalar": "0xa118b",
      "l1Fee": "0x68",
      "l1GasPrice": "0x16",
      "l1GasUsed": "0x640"
    },
    {
      "status": "0x1",
      "cumulativeGasUsed": "0xa42a7d",
      "logs": [
        {
          "address": "0xe0cc9ef22a64b2b3ca028e3e83b8fc69f062b8ac",
          "topics": [
            "0xddf252ad1be2c89b69c2b068fc378daa952ba7f163c4a11628f55a4df523b3ef",
            "0x000000000000000000000000096c7c41f0a1b8e2ec2bbfb0d52db86575330ed8",
            "0x0000000000000000000000002c6b1d5572277e34dc96ecb4b74b1196e24a79e6"
          ],
          "data": "0x0000000000000000000000000000000000000000000003878076a58c7e6aaaaa",
          "blockHash": "0x40b4375867d871a598650d05e1f6ecd17730e654f20d3417542f58659dcc5cb0",
          "blockNumber": "0x25d9b71",
          "blockTimestamp": "0x69ce95c2",
          "transactionHash": "0xf99a2a3cb6d28ee50caa510d6382ebc7d8c89af43321a2ad0597b1d6a5e48e09",
          "transactionIndex": "0x27",
          "logIndex": "0x146",
          "removed": false
        },
        {
          "address": "0x096c7c41f0a1b8e2ec2bbfb0d52db86575330ed8",
          "topics": [
            "0x48e2b34d86dae2a72892db2a5002a101f62a565cb381ece1a353711907989677",
            "0x0000000000000000000000002c6b1d5572277e34dc96ecb4b74b1196e24a79e6"
          ],
          "data": "0x0000000000000000000000000000000000000000000003878076a58c7e6aaaaa",
          "blockHash": "0x40b4375867d871a598650d05e1f6ecd17730e654f20d3417542f58659dcc5cb0",
          "blockNumber": "0x25d9b71",
          "blockTimestamp": "0x69ce95c2",
          "transactionHash": "0xf99a2a3cb6d28ee50caa510d6382ebc7d8c89af43321a2ad0597b1d6a5e48e09",
          "transactionIndex": "0x27",
          "logIndex": "0x147",
          "removed": false
        }
      ],
      "logsBloom": "0x00000000000000000000000000000000000000200000000000000000000000000000000000000040400000000000000000000000000000040000000000000000000000000000000000000008000000000000000000000000000000000000000000000000000004000100000000000000000000000000000000000010000000000000000000000000000000000000002000000000000000000000000000000000000000001000000200000000000000000020000300000000000000000000000000000002000000040000000000000000000000000000400000000000000004000000000000000000000000000000000000000000000000000000000000000000",
      "type": "0x2",
      "transactionHash": "0xf99a2a3cb6d28ee50caa510d6382ebc7d8c89af43321a2ad0597b1d6a5e48e09",
      "transactionIndex": "0x27",
      "blockHash": "0x40b4375867d871a598650d05e1f6ecd17730e654f20d3417542f58659dcc5cb0",
      "blockNumber": "0x25d9b71",
      "gasUsed": "0x18e9a",
      "effectiveGasPrice": "0x5b8d80",
      "blobGasUsed": "0x39d0",
      "from": "0x2c6b1d5572277e34dc96ecb4b74b1196e24a79e6",
      "to": "0x096c7c41f0a1b8e2ec2bbfb0d52db86575330ed8",
      "contractAddress": null,
      "daFootprintGasScalar": "0x94",
      "l1BaseFeeScalar": "0x44d",
      "l1BlobBaseFee": "0x1",
      "l1BlobBaseFeeScalar": "0xa118b",
      "l1Fee": "0x68",
      "l1GasPrice": "0x16",
      "l1GasUsed": "0x640"
    },
    {
      "status": "0x1",
      "cumulativeGasUsed": "0x9c201c",
      "logs": [
        {
          "address": "0xe0cc9ef22a64b2b3ca028e3e83b8fc69f062b8ac",
          "topics": [
            "0xddf252ad1be2c89b69c2b068fc378daa952ba7f163c4a11628f55a4df523b3ef",
            "0x000000000000000000000000096c7c41f0a1b8e2ec2bbfb0d52db86575330ed8",
            "0x000000000000000000000000d5c766438c954f0c2da19ecbc7ad336e732272c9"
          ],
          "data": "0x0000000000000000000000000000000000000000000003878076a58c7e6aaaaa",
          "blockHash": "0x0000000000000000000000000000000000000000000000000000000000000000",
          "blockNumber": "0x25d9b72",
          "blockTimestamp": "0x69ce95c4",
          "transactionHash": "0x4c290101e8f6b4e8f606201fc95bf535717599974e2e15b8caa266c782fd2ae5",
          "transactionIndex": "0x1b",
          "logIndex": "0xd9",
          "removed": false
        },
        {
          "address": "0x096c7c41f0a1b8e2ec2bbfb0d52db86575330ed8",
          "topics": [
            "0x48e2b34d86dae2a72892db2a5002a101f62a565cb381ece1a353711907989677",
            "0x000000000000000000000000d5c766438c954f0c2da19ecbc7ad336e732272c9"
          ],
          "data": "0x0000000000000000000000000000000000000000000003878076a58c7e6aaaaa",
          "blockHash": "0x0000000000000000000000000000000000000000000000000000000000000000",
          "blockNumber": "0x25d9b72",
          "blockTimestamp": "0x69ce95c4",
          "transactionHash": "0x4c290101e8f6b4e8f606201fc95bf535717599974e2e15b8caa266c782fd2ae5",
          "transactionIndex": "0x1b",
          "logIndex": "0xda",
          "removed": false
        }
      ],
      "logsBloom": "0x00000000000000000000000000001000000000200000000000000000000000000000000000000040400000000000000000000000000000040000000000100000000000000000000000000008000000000000000000000000000000000000000000000000000004000000000000000000000000000000000000000010000000000000000000000000000000000000002000000000000000000000000000000000000000000000000200000000000000000020000200000000000000000000000000000002000000040000000000000000000000000000400000000000000004000000000000000000000000000000000000000000000000000000000000000000",
      "type": "0x2",
      "transactionHash": "0x4c290101e8f6b4e8f606201fc95bf535717599974e2e15b8caa266c782fd2ae5",
      "transactionIndex": "0x1b",
      "blockHash": "0x0000000000000000000000000000000000000000000000000000000000000000",
      "blockNumber": "0x25d9b72",
      "gasUsed": "0x18e9a",
      "effectiveGasPrice": "0x5b8d80",
      "blobGasUsed": "0x39d0",
      "from": "0xd5c766438c954f0c2da19ecbc7ad336e732272c9",
      "to": "0x096c7c41f0a1b8e2ec2bbfb0d52db86575330ed8",
      "contractAddress": null,
      "daFootprintGasScalar": "0x94",
      "l1BaseFeeScalar": "0x44d",
      "l1BlobBaseFee": "0x1",
      "l1BlobBaseFeeScalar": "0xa118b",
      "l1Fee": "0x68",
      "l1GasPrice": "0x16",
      "l1GasUsed": "0x640"
    }
  ],
  "libraries": [],
  "pending": [],
  "returns": {},
  "timestamp": 1775146435322,
  "chain": 84532,
  "commit": "22e6235"
}