{
  "transactions": [
    {
      "hash": "0x1434a6ad65f978cdc28e63bac5742380ab0668c652c7cbff7672503739ef8309",
      "transactionType": "CALL",
      "contractName": null,
      "contractAddress": "0x9852fcee6eb8a9416d461638b39cdf19a9779e5e",
      "function": "deployPresale((uint256,uint256,uint256,uint256,bytes32)[],(address,uint256,uint256,uint8,uint16),(address,uint256,address,uint256,bool,bytes32,uint256,uint256),address)",
      "arguments": [
        "[(1774554178, 1775158978, 5000000000000000000, 5000000000000000000, 0x0000000000000000000000000000000000000000000000000000000000000000)]",
        "(0xc25af38A36d790F34176955Fc81dee87aDBA071B, 1000000000000000000, 5000000000000000000, 1, 500)",
        "(0x0000000000000000000000000000000000000000, 1000000000000000000000000, 0xc25af38A36d790F34176955Fc81dee87aDBA071B, 100, false, 0x0000000000000000000000000000000000000000000000000000000000000000, 0, 0)",
        "0xB85885897D297000A74eA2e4711C3Ca729461ABC"
      ],
      "transaction": {
        "from": "0xc25af38a36d790f34176955fc81dee87adba071b",
        "to": "0x9852fcee6eb8a9416d461638b39cdf19a9779e5e",
        "gas": "0xd165f",
        "value": "0x0",
        "input": "0xf750109600000000000000000000000000000000000000000000000000000000000001e0000000000000000000000000c25af38a36d790f34176955fc81dee87adba071b0000000000000000000000000000000000000000000000000de0b6b3a76400000000000000000000000000000000000000000000000000004563918244f40000000000000000000000000000000000000000000000000000000000000000000100000000000000000000000000000000000000000000000000000000000001f4000000000000000000000000000000000000000000000000000000000000000000000000000000000000000000000000000000000000d3c21bcecceda1000000000000000000000000000000c25af38a36d790f34176955fc81dee87adba071b00000000000000000000000000000000000000000000000000000000000000640000000000000000000000000000000000000000000000000000000000000000000000000000000000000000000000000000000000000000000000000000000000000000000000000000000000000000000000000000000000000000000000000000000000000000000000000000000000000000000000000000000000000000000000000000000000000000b85885897d297000a74ea2e4711c3ca729461abc00000000000000000000000000000000000000000000000000000000000000010000000000000000000000000000000000000000000000000000000069c58c420000000000000000000000000000000000000000000000000000000069cec6c20000000000000000000000000000000000000000000000004563918244f400000000000000000000000000000000000000000000000000004563918244f400000000000000000000000000000000000000000000000000000000000000000000",
        "nonce": "0x3c",
        "chainId": "0x14a34"
      },
      "additionalContracts": [
        {
          "transactionType": "CREATE",
          "contractName": "BeaconProxy",
          "address": "0xe72585401b510034c8f148df181ad82a5caad003",
          "initCode": "0x60a08060405261047a80380380916100178285610292565b833981016040828203126101eb5761002e826102c9565b602083015190926001600160401b0382116101eb57019080601f830112156101eb57815161005b816102dd565b926100696040519485610292565b8184526020840192602083830101116101eb57815f926020809301855e84010152823b15610274577fa3f0ad74e5423aebfd80d3ef4346578335a9a72aeaee59ff6cb3582b35133d5080546001600160a01b0319166001600160a01b038516908117909155604051635c60da1b60e01b8152909190602081600481865afa9081156101f7575f9161023a575b50803b1561021a5750817f1cf3b03a6cf19fa2baba4df148e9dcabedea7f8a5c07840e207e5c089be95d3e5f80a282511561020257602060049260405193848092635c60da1b60e01b82525afa9182156101f7575f926101ae575b505f809161018a945190845af43d156101a6573d9161016e836102dd565b9261017c6040519485610292565b83523d5f602085013e6102f8565b505b608052604051610123908161035782396080518160180152f35b6060916102f8565b9291506020833d6020116101ef575b816101ca60209383610292565b810103126101eb575f80916101e161018a956102c9565b9394509150610150565b5f80fd5b3d91506101bd565b6040513d5f823e3d90fd5b505050341561018c5763b398979f60e01b5f5260045ffd5b634c9c8ce360e01b5f9081526001600160a01b0391909116600452602490fd5b90506020813d60201161026c575b8161025560209383610292565b810103126101eb57610266906102c9565b5f6100f5565b3d9150610248565b631933b43b60e21b5f9081526001600160a01b038416600452602490fd5b601f909101601f19168101906001600160401b038211908210176102b557604052565b634e487b7160e01b5f52604160045260245ffd5b51906001600160a01b03821682036101eb57565b6001600160401b0381116102b557601f01601f191660200190565b9061031c575080511561030d57602081519101fd5b63d6bda27560e01b5f5260045ffd5b8151158061034d575b61032d575090565b639996b31560e01b5f9081526001600160a01b0391909116600452602490fd5b50803b1561032556fe60806040819052635c60da1b60e01b81526020906004817f00000000000000000000000000000000000000000000000000000000000000006001600160a01b03165afa801560a2575f901560d1575060203d602011609c575b601f19601f820116608001906080821067ffffffffffffffff83111760885760849160405260800160ad565b60d1565b634e487b7160e01b5f52604160045260245ffd5b503d6058565b6040513d5f823e3d90fd5b602090607f19011260cd576080516001600160a01b038116810360cd5790565b5f80fd5b5f8091368280378136915af43d5f803e1560e9573d5ff35b3d5ffdfea2646970667358221220c246b2b62979da00d95a9c8a4dc3f5de68a503850f7addd33cb9dd80c9a580f564736f6c634300081b003300000000000000000000000098ca908b15baafeba64d130af4eafc68905094c0000000000000000000000000000000000000000000000000000000000000004000000000000000000000000000000000000000000000000000000000000002c4e7dc23eb0000000000000000000000000000000000000000000000000000000000000200000000000000000000000000c25af38a36d790f34176955fc81dee87adba071b0000000000000000000000000000000000000000000000000de0b6b3a76400000000000000000000000000000000000000000000000000004563918244f40000000000000000000000000000000000000000000000000000000000000000000100000000000000000000000000000000000000000000000000000000000001f4000000000000000000000000000000000000000000000000000000000000000000000000000000000000000000000000000000000000d3c21bcecceda1000000000000000000000000000000c25af38a36d790f34176955fc81dee87adba071b00000000000000000000000000000000000000000000000000000000000000640000000000000000000000000000000000000000000000000000000000000000000000000000000000000000000000000000000000000000000000000000000000000000000000000000000000000000000000000000000000000000000000000000000000000000000000000000000000000000000000000000000000000000000000000000000000000000f020c709fe9ae902e3cded1e50ca01021ce968e8000000000000000000000000b85885897d297000a74ea2e4711c3ca729461abc00000000000000000000000000000000000000000000000000000000000000010000000000000000000000000000000000000000000000000000000069c58c420000000000000000000000000000000000000000000000000000000069cec6c20000000000000000000000000000000000000000000000004563918244f400000000000000000000000000000000000000000000000000004563918244f40000000000000000000000000000000000000000000000000000000000000000000000000000000000000000000000000000000000000000000000000000"
        }
      ],
      "isFixedGasLimit": false
    }
  ],
  "receipts": [
    {
      "status": "0x1",
      "cumulativeGasUsed": "0x6c02eb",
      "logs": [
        {
          "address": "0xe72585401b510034c8f148df181ad82a5caad003",
          "topics": [
            "0x1cf3b03a6cf19fa2baba4df148e9dcabedea7f8a5c07840e207e5c089be95d3e",
            "0x00000000000000000000000098ca908b15baafeba64d130af4eafc68905094c0"
          ],
          "data": "0x",
          "blockHash": "0x7a02837598154bcbfd630a6b90ae74550302d761694768a78c607d527eb451c9",
          "blockNumber": "0x25916b5",
          "blockTimestamp": "0x69c58c4a",
          "transactionHash": "0x1434a6ad65f978cdc28e63bac5742380ab0668c652c7cbff7672503739ef8309",
          "transactionIndex": "0x1a",
          "logIndex": "0xf5",
          "removed": false
        },
        {
          "address": "0xe72585401b510034c8f148df181ad82a5caad003",
          "topics": [
            "0xc7f505b2f371ae2175ee4913f4499e1f2633a7b5936321eed1cdaeb6115181d2"
          ],
          "data": "0x0000000000000000000000000000000000000000000000000000000000000001",
          "blockHash": "0x7a02837598154bcbfd630a6b90ae74550302d761694768a78c607d527eb451c9",
          "blockNumber": "0x25916b5",
          "blockTimestamp": "0x69c58c4a",
          "transactionHash": "0x1434a6ad65f978cdc28e63bac5742380ab0668c652c7cbff7672503739ef8309",
          "transactionIndex": "0x1a",
          "logIndex": "0xf6",
          "removed": false
        },
        {
          "address": "0x9852fcee6eb8a9416d461638b39cdf19a9779e5e",
          "topics": [
            "0xb47cefea858b462f9da307185975aab31ba6d70b1f1a466c2df9684d581ef2af",
            "0x000000000000000000000000e72585401b510034c8f148df181ad82a5caad003",
            "0x000000000000000000000000c25af38a36d790f34176955fc81dee87adba071b"
          ],
          "data": "0x00000000000000000000000000000000000000000000000000000000000000010000000000000000000000000000000000000000000000000000000000000001",
          "blockHash": "0x7a02837598154bcbfd630a6b90ae74550302d761694768a78c607d527eb451c9",
          "blockNumber": "0x25916b5",
          "blockTimestamp": "0x69c58c4a",
          "transactionHash": "0x1434a6ad65f978cdc28e63bac5742380ab0668c652c7cbff7672503739ef8309",
          "transactionIndex": "0x1a",
          "logIndex": "0xf7",
          "removed": false
        }
      ],
      "logsBloom": "0x00000000000000000000000000000000000000200000000000000000000000000000100000000000000000000000000000000000000000000000000000000000000000000080000000000000001000000000200000000000000000000800000000000010000040000000000000080000000000000080000000000004000000000000000000000000000800000000080000000000000090000000000000000000000000000000000004000000000000000000000000000000000080000000000000040000100000000000000000008000000000000004000000800000000000000000000000000000000000000008000000000000800000000000000000000000",
      "type": "0x2",
      "transactionHash": "0x1434a6ad65f978cdc28e63bac5742380ab0668c652c7cbff7672503739ef8309",
      "transactionIndex": "0x1a",
      "blockHash": "0x7a02837598154bcbfd630a6b90ae74550302d761694768a78c607d527eb451c9",
      "blockNumber": "0x25916b5",
      "gasUsed": "0x9799d",
      "effectiveGasPrice": "0x5b8d80",
      "blobGasUsed": "0x6c1c",
      "from": "0xc25af38a36d790f34176955fc81dee87adba071b",
      "to": "0x9852fcee6eb8a9416d461638b39cdf19a9779e5e",
      "contractAddress": null,
      "daFootprintGasScalar": "0x94",
      "l1BaseFeeScalar": "0x44d",
      "l1BlobBaseFee": "0x1",
      "l1BlobBaseFeeScalar": "0xa118b",
      "l1Fee": "0xe5",
      "l1GasPrice": "0x20",
      "l1GasUsed": "0xbb7"
    }
  ],
  "libraries": [],
  "pending": [],
  "returns": {},
  "timestamp": 1774554187297,
  "chain": 84532,
  "commit": "b233df3"
}